:100000000C94F1000C9419010C9419010C94190131
:100010000C9419010C9419010C9419010C941901F8
:100020000C9419010C9419010C9419010C941901E8
:100030000C9419010C9419010C9419010C941901D8
:100040000C943D130C9419010C94AD130C9487136C
:100050000C9419010C9419010C9419010C941901B8
:100060000C941E120C941901204F7074696D616C10
:1000700020706174685F726576657273653A2000FE
:10008000204F7074696D616C20706174683A200053
:100090002053656172636820706174683A20005370
:1000A000696D706C696679506174680049276D20CC
:1000B0007468696E6B696E6721210020756E6B6EC6
:1000C0006F776E2000200020002066696E697368DB
:1000D000206D617A65002063616E20676F20737404
:1000E00072657373002066696E697368206D617A4A
:1000F0006500207374726169676874436865636B37
:10010000200020676F0020726561647900203D3314
:10011000313D00205E00205E002072696768742017
:100120006F757400206C656674206F7574002055BF
:100130002D7475726E004D617A65536F6C76696EC1
:1001400067002033310020372F31355200205E0008
:100150002032382F33304C00205E002072696768EF
:1001600074206F757400206C656674206F75740060
:100170002046696E6973680052756E6E696E6742DB
:1001800061636B0000000000240027002A000000CB
:100190000000250028002B0000000000230026009E
:1001A00029000404040404040404020202020202FA
:1001B000030303030303010204081020408001022B
:1001C00004081020010204081020000000080002AA
:1001D0000100000304070000000000000000DF131E
:1001E000CB1B11241FBECFEFD8E0DEBFCDBF23E075
:1001F000A4EBB1E001C01D92AD37B207E1F711E009
:10020000A0E0B1E0E4E7FFE302C005900D92A43B5B
:10021000B107D9F710E0C0EFD0E004C02197FE018C
:100220000E946A1DCF3ED107C9F70E9490140C941A
:10023000AD1F0C9400002091560330915703821794
:10024000930760F420915203309153032115310537
:1002500029F0280F391FF9018081089580E0089561
:1002600020915B02260F3327331F21323105ECF436
:1002700020918102FC0190E080E0243069F082E06E
:100280000895A0915B022191AC01475C5D4FA40FE2
:10029000B52FB11D2C930196861798F380915B02C0
:1002A000680F60935B0280E0089581E008950895EF
:1002B00008950895E091300280912F02E81730F4FC
:1002C000F0E0E15FFD4F808190E008958FEF9FEFB8
:1002D00008959091300280912F022FEF3FEF9817F1
:1002E00048F4E92FF0E0E15FFD4F208130E09F5FAF
:1002F00090933002C901089580912F0290913002AD
:10030000891B990B0895CF92DF92EF92FF920F9382
:100310001F93CF93DF937C01CB018A0120910E02C2
:10032000222389F0EB016B01C40ED51ECC15DD052F
:1003300069F06991D701ED91FC910190F081E02D78
:10034000C7010995F3CF642F0E943001C801DF91E6
:10035000CF911F910F91FF90EF90DF90CF90089574
:10036000CF93DF931F92CDB7DEB7698320910E0242
:100370002223F9F020913102203258F021E030E0C0
:10038000FC013383228390E080E00F90DF91CF91D6
:10039000089580913202E82FF0E0E251FE4F9981FA
:1003A00090838F5F809332028093310281E090E0EE
:1003B000ECCF61E0CE0101960E943001F7CF83308F
:1003C00081F028F4813099F08230A9F008958730C7
:1003D000A9F08830C9F08430B1F4809180008F7D1D
:1003E00003C0809180008F7780938000089584B54A
:1003F0008F7784BD089584B58F7DFBCF8091B00049
:100400008F778093B00008958091B0008F7DF9CFF1
:10041000CF93DF93282F30E0F901E653FE4F84910C
:10042000F901EA54FE4FD491F901EE55FE4FC49103
:10043000CC23A1F081110E94DF01EC2FF0E0EE0F40
:10044000FF1FE856FE4FA591B491EC91ED2381E09A
:1004500090E009F480E0DF91CF91089580E090E092
:10046000FACF1F93CF93DF93282F30E0F901E653A3
:10047000FE4F8491F901EA54FE4FD491F901EE55F3
:10048000FE4FC491CC23A9F0162F81110E94DF01E9
:10049000EC2FF0E0EE0FFF1FE257FE4FA591B49155
:1004A0008FB7F894EC91111108C0D095DE23DC933E
:1004B0008FBFDF91CF911F910895DE2BF8CFCF939F
:1004C000DF9360E08CE00E94310260E088E00E94EF
:1004D0003102C7E0D0E060E084E00E943102809108
:1004E000500390E00C2E02C0959587950A94E2F790
:1004F00061E080FF60E088E00E94310261E084E01A
:100500000E943102219738F761E08CE0DF91CF91B2
:100510000C9431021092810281E080938302109248
:10052000820261E082E10E94310261E083E10E9487
:100530003102E9EBF0E080818E7F808380818D7FC6
:10054000808388E48093B80085E48093BC0008959C
:10055000CF93DF9391E0909338028823B9F0C09154
:10056000B800D091BA008091BC008A7B8093BC0017
:1005700060E082E10E94310260E083E10E9431028A
:100580000E948A02D093BA00C093B800DF91CF9145
:100590000895CF93DF9390E0FC01EA54FE4F24913D
:1005A0008E559E4FFC0184918823D1F090E0880FF6
:1005B000991FFC01EC57FE4FA591B491FC01E25745
:1005C000FE4FC591D49161110EC09FB7F8948C91E4
:1005D000E22FE0958E238C932881E223E8839FBF4E
:1005E000DF91CF9108958FB7F894EC91E22BEC93C3
:1005F0008FBFF6CF61E08CE00E94C90261E087E026
:100600000E94C90261E088E00E94C90261E084E0C2
:100610000E94C902109250030E945F0260E087E0CE
:100620000C9431023FB7F8948091EA019091EB016C
:10063000A091EC01B091ED0126B5A89B05C02F3F1C
:1006400019F00196A11DB11D3FBFBA2FA92F982FF8
:100650008827BC01CD01620F711D811D911D42E0F3
:10066000660F771F881F991F4A95D1F708950F933A
:100670001F9380916C03882329F061E080916A03C5
:100680000E94C90260E080916A030E94310283E007
:1006900090E00197F1F761E080916A030E943102D6
:1006A00083E290E00197F1F760E080916A030E9495
:1006B000310280916C03882329F060E080916A0305
:1006C0000E94C9020E94120360936D0370936E032F
:1006D00080936F039093700380916B030E940802D4
:1006E000892BD9F40E94120300916D0310916E03BF
:1006F00020916F0330917003601B710B820B930B81
:10070000009171031091720320917303309174036F
:100710000617170728073907F8F60E941203609397
:100720006D0370936E0380936F03909370038091B9
:100730006B030E940802892BD9F00E9412030091DA
:100740006D0310916E0320916F0330917003601B55
:10075000710B820B930B0091710310917203209126
:100760007303309174030617170728073907F8F643
:100770000E94120320916D0330916E03CB01821B06
:10078000930B1F910F9108958F929F92AF92BF92FA
:10079000CF92DF92EF92FF926B017C010E941203D5
:1007A0004B015C01C114D104E104F104B9F00E94D1
:1007B0001203681979098A099B09683E734081050B
:1007C000910580F321E0C21AD108E108F10888EE12
:1007D000880E83E0981EA11CB11CE4CFFF90EF901F
:1007E000DF90CF90BF90AF909F908F9008952FB7DC
:1007F000F8946091E6017091E7018091E801909191
:10080000E9012FBF08950895DC01ED91FC9101905D
:10081000F081E02D0994DB0114964D915C911597C0
:100820006D917C91DC01ED91FC910280F381E02DD2
:100830000994EF92FF920F931F93CF93DF938C0154
:100840007B01D0E0C0E0F701EC0FFD1F649166234F
:1008500061F0D801ED91FC910190F081E02DC8018B
:100860000995892B11F02196EECFCE01DF91CF9122
:100870001F910F91FF90EF900895AF92BF92CF928A
:10088000DF92EF92FF920F931F93CF93DF936C0150
:100890007B018B01040F151FEB015E01AE18BF0831
:1008A000C017D10759F06991D601ED91FC910190E3
:1008B000F081E02DC6010995892B79F7C501DF91FB
:1008C000CF911F910F91FF90EF90DF90CF90BF904D
:1008D000AF900895FC01538D448D252F30E0842F77
:1008E00090E0821B930B541710F0CF960895019758
:1008F0000895FC01918D828D981761F0A28DAE0F45
:10090000BF2FB11D5D968C91928D9F5F9F73928FCB
:1009100090E008958FEF9FEF0895FC01918D828DF7
:10092000981731F0828DE80FF11D858D90E00895C4
:100930008FEF9FEF0895FC01918D228D892F90E01C
:10094000805C9F4F821B91098F739927089583EBD9
:1009500092E00E949B0421E0892B09F420E0822F81
:10096000089580E090E0892B29F00E94A70481116E
:100970000C9400000895FC01A48DA80FB92FB11D9F
:10098000A35ABF4F2C91848D90E001968F739927C5
:10099000848FA689B7892C93A089B1898C918370A3
:1009A00080648C93938D848D981306C00288F3899C
:1009B000E02D80818F7D80830895EF92FF920F93C9
:1009C0001F93CF93DF93EC0181E0888F9B8D8C8DFB
:1009D00098131AC0E889F989808185FF15C09FB7EF
:1009E000F894EE89FF896083E889F98980818370B2
:1009F000806480839FBF81E090E0DF91CF911F9161
:100A00000F91FF90EF900895F62E0B8D10E00F5F81
:100A10001F4F0F731127E02E8C8D8E110CC00FB657
:100A200007FCFACFE889F989808185FFF5CFCE01EF
:100A30000E94BB04F1CFEB8DEC0FFD2FF11DE35AAB
:100A4000FF4FF0829FB7F8940B8FEA89FB89808172
:100A50008062CFCFCF93DF93EC01888D8823B9F0EC
:100A6000AA89BB89E889F9898C9185FD03C08081B9
:100A700086FD0DC00FB607FCF7CF8C9185FFF2CF36
:100A8000808185FFEDCFCE010E94BB04E9CFDF91CD
:100A9000CF910895CF92DF92EF92FF920F931F9321
:100AA000CF93DF93FC01C48121E020930E02C09319
:100AB000C50110923202109231028385682B87EAB9
:100AC00092E00E94B001D0913102D13208F092C080
:100AD0000E9412036B017C0180918102811165C02B
:100AE00082E08093810281E0809383028FEF809384
:100AF00080021092A502D093A402AEEEB1E0E4E829
:100B0000F2E080E0D81385C01092A6028091A60280
:100B1000CC0FC82BC093A60280918202813009F0CD
:100B20007CC0109282020E9412036B017C018091B2
:100B3000A6028093BB008091340290913502A0916F
:100B40003602B0913702892B8A2B8B2B99F00E94A9
:100B50001203009134021091350220913602309137
:100B600037026C197D098E099F0906171707280798
:100B70003907E0F18091BC0083FDD9CF85EC8093EB
:100B8000BC000E9412036B017C01809181028230C3
:100B900009F445C0809180028F3F61F1809180020D
:100BA000803241F18091800225C080913402909181
:100BB0003502A0913602B0913702892B8A2B8B2BFC
:100BC00009F48ACF0E941203009134021091350279
:100BD00020913602309137026C197D098E099F09E8
:100BE000061717072807390708F076CF80913302D8
:100BF0000E94A802109232021092310210920E024C
:100C0000DF91CF911F910F91FF90EF90DF90CF90E8
:100C100008959D9191938F5F75CF85EEB0CF8091B0
:100C2000340290913502A0913602B0913702892B9F
:100C30008A2B8B2B09F4A9CF0E9412030091340256
:100C40001091350220913602309137026C197D09DE
:100C50008E099F09061717072807390708F095CF4F
:100C6000C5CF90E080E00895FC018081823061F082
:100C700018F4813031F00895833049F0843049F020
:100C800008956093B30008956093B400089567BD1C
:100C9000089568BD0895FC018081823069F028F4D0
:100CA00023E092E0813051F00895833011F126E085
:100CB00090E0843019F0089524E091E06230E1F092
:100CC000643079F1613009F03FC041E050E0BA0191
:100CD00001C0660F9A95EAF780915003862B01C0F8
:100CE000440F2A95EAF740954823409350030C940B
:100CF0005F0227E095E0E2CF41E050E0BA0102C098
:100D0000660F771F9A95E2F7CB018095909150037B
:100D1000892301C0440F2A95EAF7842B809350035E
:100D2000E6CF41E050E0FA0102C0EE0FFF1F9A95B6
:100D3000E2F7CF0101C0440F2A95EAF7842B809592
:100D4000909150038923EACF089561E087E793E00B
:100D50000E944B0664E085E793E00C944B0664E048
:100D600087E793E00E944B0661E085E793E00C94EF
:100D70004B0661E087E793E00E944B0662E085E75F
:100D800093E00C944B0662E087E793E00E944B06E9
:100D900061E085E793E00C944B0661E087E793E020
:100DA0000E944B0661E085E793E00C944B0664E0FB
:100DB00087E793E00E944B0664E085E793E00C949C
:100DC0004B06CF92DF92EF92FF920F931F93CF9338
:100DD000DF938EE00E940802C1E0D0E0892B11F081
:100DE000D0E0C0E0D093C001C093BF018FE00E946B
:100DF000080201E010E0892B11F010E000E01093F0
:100E0000BE010093BD0180E10E940802EE24E3943C
:100E1000F12C892B11F0F12CE12CF092BC01E09225
:100E2000BB0181E10E940802CC24C394D12C892B00
:100E300011F0D12CC12CD092BA01C092B90182E03C
:100E40000E94080221E030E0892B11F030E020E020
:100E5000C901880F991F8C0D9D1D880F991F8E0D3C
:100E60009F1D880F991F800F911F880F991F8C0F4E
:100E70009D1FDF91CF911F910F91FF90EF90DF9019
:100E8000CF9008950E94D70660EE71E080E090E078
:100E90000E94C4030E94B9066EE987E793E00E94AE
:100EA00034066CE885E793E00E9434068091D20115
:100EB0009091D3019C01277F2031310509F046C074
:100EC00068E572E080E090E00E94C4030E94D706CB
:100ED00060EE71E080E090E00E94C4030E94B906D9
:100EE0008091D2019091D3019093D1018093D00150
:100EF0000E94E1069093D3018093D2019C012D7F43
:100F00002430310511F00C9749F76CE887E793E03E
:100F10000E94340668E785E793E00E9434068091DA
:100F2000D2019091D3019093D1018093D0010E947E
:100F3000E1069093D3018093D20184309105C1F0F2
:100F40008630910581F40E94C306E9CF8B7F089714
:100F500029F464EF71E080E090E0B6CF60E971E0E1
:100F600080E090E0B1CF0C97D1F60E94B906D7CFC0
:100F700008950E94D70660EE71E080E090E00E9444
:100F8000C4030E94C3066EE987E793E00E9434061B
:100F90006CE885E793E00E9434068091D20190913D
:100FA000D3019C012D7F2130310509F046C068E551
:100FB00072E080E090E00E94C4030E94D70660EED9
:100FC00071E080E090E00E94C4030E94C30680911B
:100FD000D2019091D3019093D1018093D0010E94CE
:100FE000E1069093D3018093D2019C012D7F2430A0
:100FF000310511F00C9749F76CE887E793E00E9400
:10100000340668E785E793E00E9434068091D201B8
:101010009091D3019093D1018093D0010E94E10679
:101020009093D3018093D20184309105C1F0863032
:10103000910581F40E94C306E9CF8B7F029729F4C2
:1010400064EF71E080E090E0B6CF60E971E080E0AD
:1010500090E0B1CF0C97D1F60E94B906D7CF089592
:10106000CF92DF92EF92FF920F931F930E94F703AC
:101070000091B5011091B6012091B7013091B801EE
:101080006B017C01C01AD10AE20AF30A97018601BA
:10109000083C11052105310580F06093B50170937E
:1010A000B6018093B7019093B8010E943703803551
:1010B000914018F40E94D706F8CF1F910F91FF902E
:1010C000EF90DF90CF9008950F931F93CF938C01F3
:1010D000C62F0E944A056C2F6460C8010E944A0511
:1010E0006C2F6B7FC8010E944A0583EC90E001974A
:1010F000F1F7CF911F910F9108950F931F93CF9305
:10110000DF938C01D62FC42F607F642B0E9464086C
:1011100080E1D89FB00111246C2BC801DF91CF91E1
:101120001F910F910C946408CF93DF93CDB7DEB776
:1011300028970FB6F894DEBF0FBECDBF98E0E6E06B
:10114000F1E0DE01119601900D929A95E1F79091F0
:101150006603961708F46FEF262F30E0220F331F37
:1011600041E050E04C0F5D1F240F351FF9016081F5
:10117000680F606840E08EE593E028960FB6F8941B
:10118000DEBF0FBECDBFDF91CF910C947D0840E054
:1011900061E08EE593E00E947D088BE39FE101977B
:1011A000F1F7089541E00E947D0881E090E0089504
:1011B000CF93DF9320915C0330915D03232B89F063
:1011C000FC01C0915803D091590360817181CE0117
:1011D0000E94931F009729F08C1B9D0BDF91CF91EC
:1011E00008958FEF9FEFFACF85ED8093BC0080913B
:1011F000340290913502A0913602B09137020796E1
:10120000A11DB11D23E0B695A795979587952A95C1
:10121000D1F72091BC0024FD03C0109281020895F3
:10122000409134025091350260913602709137023C
:10123000452B462B472B69F30097A105B10541F0DB
:1012400025E32A95F1F700000197A109B109E1CF43
:10125000809133020C94A8022F923F924F925F929A
:101260006F927F928F929F92AF92BF92CF92DF92B6
:10127000EF92FF920F931F93CF93DF9300D000D094
:10128000CDB7DEB7FC01448055804114510409F408
:1012900012C1FB01648075806114710409F40BC1F3
:1012A0007A016B019C838B83FA01A480B580A61818
:1012B000B708FC0100811181A114B104B9F4F60151
:1012C00060817181C8010E94931F8C01009709F40D
:1012D000F2C0F70160817181448155810E94661FCF
:1012E000F70184819581080F191FE9CFB7FC10C061
:1012F000FB01208031804201C801B1010E94931F8F
:10130000009709F44EC0860D971D8A0C9B1CF5CFE3
:101310003801F60160817181C8010E94931F2C0180
:10132000009729F14C01801A910AA401B801C30168
:101330000E94661F680C791CF701608171814481ED
:101340005581C3010E94661FF70184809580680C57
:10135000791CF60104811581040D151DEB81FC81BA
:10136000848195818A0D9B1D95838483D2CFB8019A
:10137000C3010F900F900F900F90DF91CF911F91AD
:101380000F91FF90EF90DF90CF90BF90AF909F9024
:101390008F907F906F905F904F903F902F900C9424
:1013A0008C1F4814590409F486C0EB81FC818281AA
:1013B00093818815990578F4B4016F5F7F4FC80158
:1013C0000E94A91E009709F476C0EB81FC819183ED
:1013D000808393828282EB81FC810481158101509C
:1013E000110917FD68C03801F601248035802114E9
:1013F000310409F460C0EB81FC8184809580811404
:10140000910409F458C08214930408F454C00815D8
:10141000190520F03401F1E06F1A7108EB81FC81AD
:1014200040805180C2010FEF1FEF9201260D371D42
:101430003A832983E981FA81E817F90788F0F601F0
:10144000608171810E94931F009751F09C012419C3
:1014500035096216730608F4980101968901EACFEE
:1014600017FD29C0200E311EC201820D931DA4015B
:1014700042195309BC018A0D9B1D0E946F1FEB810D
:10148000FC81848195818A0D9B1D958384832081B5
:101490003181820F931FFC011082EB81FC818081DE
:1014A0009181F7016081718144815581800F911F85
:1014B0000E94661F94CF0F900F900F900F90DF91B6
:1014C000CF911F910F91FF90EF90DF90CF90BF9041
:1014D000AF909F908F907F906F905F904F903F90D4
:1014E0002F9008950F931F93CF93DF93EC01888182
:1014F0009981009759F02A813B812617370730F0F0
:1015000081E0DF91CF911F910F9108958B016F5F63
:101510007F4F0E94A91E009759F0998388831B83EF
:101520000A832C813D81232B59F7FC011082E8CFDF
:1015300080E0E7CF0F931F93CF93DF9300D0CDB719
:10154000DEB789831A8200915C0310915D030F5FFF
:101550001F4FB80188E593E00E94720A8823A1F02A
:10156000209158033091590380915C0390915D0361
:10157000BE016F5F7F4F820F931F0E948C1F1093DD
:101580005D0300935C0381E00F900F90DF91CF919A
:101590001F910F9108950E94420782E40C949A0AC9
:1015A000CF93DF93EC0188819981009711F00E941D
:1015B000201E198218821D821C821B821A82DF91D2
:1015C000CF910895EF92FF920F931F93CF93DF93E4
:1015D000EC017B018A01BA010E94720A81110BC0E1
:1015E000CE010E94D00ACE01DF91CF911F910F91C1
:1015F000FF90EF9008951D830C83B7018881998136
:101600000E948C1FF0CFFC0180819181009711F026
:101610000C94201E0895FC01118210821382128204
:1016200015821482FB0101900020E9F73197AF0188
:10163000461B570B0C94E20AFB0101900020E9F7CE
:101640003197AF01461B570BDC01ED91FC910280F5
:10165000F381E02D0994CF93DF93BC0183EB92E0FB
:101660000E940B04EC016EE371E083EB92E00E94B8
:101670001C0B8C0F9D1FDF91CF910895CF93DF93AB
:10168000BC0183EB92E00E941904EC016EE371E06F
:1016900083EB92E00E941C0B8C0F9D1FDF91CF917A
:1016A0000895CF93DF93682F83EB92E00E940404A8
:1016B000EC016EE371E083EB92E00E941C0B8C0F57
:1016C0009D1FDF91CF9108958F929F92AF92BF920D
:1016D000EF92FF920F931F93CF93DF93CDB7DEB7B7
:1016E000A1970FB6F894DEBF0FBECDBF7C01FA0103
:1016F000CB0119A2223008F42AE08E010F5D1F4FA2
:10170000822E912CB12CA12CBF01A50194010E9425
:10171000481DF901CA016A300CF5605DD8016E936D
:101720008D01232B242B252B79F790E080E0109757
:1017300021F0BD01C7010E941C0BA1960FB6F894C1
:10174000DEBF0FBECDBFDF91CF911F910F91FF90F4
:10175000EF90BF90AF909F908F900895695CDECF1F
:10176000CF92DF92EF92FF920F931F93CF93DF936D
:101770006B01770FEE08FF08F7FE1BC0EC016DE26E
:101780000E9404048C0144275527BA014C195D09B5
:101790006E097F092AE0CE010E94640B800F911F21
:1017A000DF91CF911F910F91FF90EF90DF90CF903D
:1017B00008952AE0B701A601DF91CF911F910F9103
:1017C000FF90EF90DF90CF900C94640BCF93DF935A
:1017D000BC0183EB92E00E94B00BEC016EE371E080
:1017E00083EB92E00E941C0B8C0F9D1FDF91CF9129
:1017F0000895CF92DF92EF92FF920F931F93CF93B2
:10180000DF9362EF70E083EB92E00E9419040E9484
:10181000CD066CE887E793E00E94340668E785E729
:1018200093E00E9434060E94F7036B017C0110E0F4
:1018300000E08091D2019091D3019093D1018093E7
:10184000D0010E94E106EC019093D3018093D20174
:101850000297029790F0C630D10579F0C430D105D7
:1018600061F0CC30D10549F0C830D10531F0C83134
:10187000D10519F0209709F050C06CE887E793E094
:101880000E94340668E785E793E00E9434060E94D0
:10189000F7036C197D098E099F090E94D31B2AE961
:1018A00039E949E95FE30E94101C0E94051D0E946E
:1018B000C4036EE170E080E090E00E94C4030E94E7
:1018C000D70660EE71E080E090E00E94C403D09300
:1018D000D101C093D0010E94E1069093D30180937F
:1018E000D2010E94E60B8091D2019091D3019C011C
:1018F000225031092330310508F04BC086ED90E0CD
:101900000E943E0B81E090E0DF91CF911F910F91FB
:10191000FF90EF90DF90CF900895CC31D10539F44E
:101920006CE887E793E00E94340668E709C0CE318F
:10193000D10559F46CE887E793E00E94340664E629
:1019400085E793E00E94340674CFC730D10541F398
:1019500068E7CF30D10529F36F9711F76CE887E777
:1019600093E00E94340668E785E793E00E9434061E
:10197000E8012196083311053CF085EE90E00E94C5
:101980003E0B8FEF9FEFC0CFCE010E94E60B8E0182
:1019900050CF8630910509F4B1CF9C012B7F2830C0
:1019A000310509F4ABCF8831910509F4A7CF8F3009
:1019B000910519F04E97029718F489EC90E0DFCF6B
:1019C00090E080E0A1CF0C941C0BCF93DF93EC014F
:1019D0008091D0019091D1018C179D0731F081E069
:1019E00090E09093C4018093C301E091C301F09112
:1019F000C4013197E730F10508F08EC0EE5FF24F79
:101A00000C946A1D090D4B0D560D5B0D660D760D80
:101A10007D0D67EC70E083EB92E00E941904CE012B
:101A20000E94E60B8091C3019091C40101969093AE
:101A3000C4018093C301209709F073C0D093C901FA
:101A4000C093C801C032D10508F086C0FE01E55D33
:101A5000F24F0C946A1D990D990D990D990D990DE0
:101A6000AC0D990D990D990DAC0DAC0DAC0D990DFA
:101A7000AC0DAC0D990D990DAC0DAC0DAC0DAC0DC4
:101A8000AC0DAC0DAC0D990DAC0DAC0DAC0D990DB4
:101A9000AC0D990D9C0D65EC70E083EB92E00E941B
:101AA000190488E593E00E942B0BBCCF0E94C70865
:101AB00084E090E0BCCF60E080E00E94940868E59C
:101AC00073E08EE593E00E940B04ACCF60E089E008
:101AD0000E94940860EB71E08EE593E00E94E30CB5
:101AE000BE018EE593E00E94B00B9CCF61E080E0E8
:101AF0000E94940862E573E0E4CF61E089E00E940F
:101B0000940860EB71E08EE593E00E94E30C609135
:101B1000CA017091CB01E5CF1092C4011092C301AC
:101B20008ACFD093CF01C093CE01C430D10509F044
:101B300085CFDF91CF9108958091D0019091D1010F
:101B40004F97B9F38091C1019091C2010196909392
:101B5000C2018093C101EDCF6BEB70E083EB92E0AB
:101B60000E941904CE01DF91CF910C94E60BDF9215
:101B7000EF92FF920F931F93CF93DF93CDB7DEB712
:101B8000A4970FB6F894DEBF0FBECDBF80915C0363
:101B900090915D03892B09F4F1C3009158031091D2
:101BA000590368E570E0C8010E94811F009709F49D
:101BB000E5C39C01201B310B890160E471E0CE017B
:101BC00001960E940B0B80915C0390915D0300973E
:101BD00041F18017910708F48C01E0915803F091CE
:101BE0005903E00FF11FF08010826091580370914B
:101BF00059036115710509F4C4C3FB01019000206C
:101C0000E9F73197AF01461B570BCE0101960E94B1
:101C1000E20A8091580390915903080F191FF801A7
:101C2000F0828091580390915903009709F4B0C352
:101C300069817A816115710509F4A8C340915A033D
:101C400050915B032D813E814217530708F49EC3D8
:101C50000E948C1F8D819E8190935D0380935C0315
:101C60001E821D82CE0101960E94030B88E08093A4
:101C7000690360E08EE593E00E944A050E94C70870
:101C800060E080E00E94940868E573E08EE593E0F0
:101C90000E940B0461E080E00E9494086CEA70E00E
:101CA0008EE593E00E94190468E873E180E090E01B
:101CB0000E94C4038FE990E00E943E0B60E970E04F
:101CC00083EB92E00E94190488E593E00E942B0BBD
:101CD00061E471E0CE0107960E940B0B63E471E0B2
:101CE000CE0101960E940B0BAE01495F5F4FBE0112
:101CF0006F5F7F4F88E593E00E942C09CE0101962B
:101D00000E94030BCE0107960E94030B65E471E06D
:101D1000CE0107960E940B0B67E471E0CE0101969D
:101D20000E940B0BAE01495F5F4FBE016F5F7F4F9B
:101D300088E593E00E942C09CE0101960E94030BD6
:101D4000CE0107960E94030B61E471E0CE01079675
:101D50000E940B0B6BE471E0CE0101960E940B0B0D
:101D6000AE01495F5F4FBE016F5F7F4F88E593E033
:101D70000E942C09CE0101960E94030BCE0107960A
:101D80000E94030B65E471E0CE0107960E940B0BE5
:101D90006FE471E0CE0101960E940B0BAE01495F2A
:101DA0005F4FBE016F5F7F4F88E593E00E942C0973
:101DB000CE0101960E94030BCE0107960E94030BF1
:101DC00061E471E0CE0107960E940B0B63E571E0C0
:101DD000CE0101960E940B0BAE01495F5F4FBE0121
:101DE0006F5F7F4F88E593E00E942C09CE0101963A
:101DF0000E94030BCE0107960E94030B69E471E079
:101E0000CE0107960E940B0B67E571E0CE010196AB
:101E10000E940B0BAE01495F5F4FBE016F5F7F4FAA
:101E200088E593E00E942C09CE0101960E94030BE5
:101E3000CE0107960E94030B63E471E0CE014F963A
:101E40000E940B0BCE014F960E94D80897FFB7C295
:101E500067E471E0CE0149960E940B0BCE014996D2
:101E60000E94D80897FFB2C26BE471E0CE0143969E
:101E70000E940B0BCE0143960E94D80897FFACC27C
:101E80006FE471E0CE010D960E940B0BCE010D9612
:101E90000E94D80897FFA5C263E571E0CE010796BE
:101EA0000E940B0BCE0107960E94D80897FF9EC296
:101EB00067E571E0CE0101960E940B0BCE01019601
:101EC0000E94D808991F9927991F81E0EE24E39476
:101ED000FF24F39401E011E09093B401882321F0F2
:101EE000CE0101960E94030BEE2021F0CE01079651
:101EF0000E94030BFF2021F0CE010D960E94030BE0
:101F0000002321F0CE0143960E94030B112321F000
:101F1000CE0149960E94030BCE014F960E94030BFF
:101F200060EB71E083EB92E00E94E30C88E593E0C4
:101F30000E942B0B1091B401112309F4C9CE61E466
:101F400071E0CE0107960E940B0B6BE471E0CE01AD
:101F500001960E940B0BAE01495F5F4FBE016F5FA0
:101F60007F4F88E593E00E942C09CE0101960E94E4
:101F7000030BCE0107960E94030B69E571E0CE01C9
:101F800007960E940B0B6BE571E0CE0101960E9453
:101F90000B0BAE01495F5F4FBE016F5F7F4F88E55E
:101FA00093E00E942C09CE0101960E94030BCE0102
:101FB00007960E94030B61E471E0CE0107960E9430
:101FC0000B0B63E471E0CE0101960E940B0BAE0196
:101FD000495F5F4FBE016F5F7F4F88E593E00E94CE
:101FE0002C09CE0101960E94030BCE0107960E9498
:101FF000030B69E571E0CE0107960E940B0B6FE5BC
:1020000071E0CE0101960E940B0BAE01495F5F4F5C
:10201000BE016F5F7F4F88E593E00E942C09CE01DF
:1020200001960E94030BCE0107960E94030B61E408
:1020300071E0CE0107960E940B0B63E571E0CE01C3
:1020400001960E940B0BAE01495F5F4FBE016F5FAF
:102050007F4F88E593E00E942C09CE0101960E94F3
:10206000030BCE0107960E94030B69E471E0CE01D9
:1020700007960E940B0B63E671E0CE0101960E9469
:102080000B0BAE01495F5F4FBE016F5F7F4F88E56D
:1020900093E00E942C09CE0101960E94030BCE0111
:1020A00007960E94030B6BE471E0CE014F960E94ED
:1020B0000B0BCE014F960E94D80897FF9BC16BE592
:1020C00071E0CE0149960E940B0BCE0149960E9409
:1020D000D80897FF96C163E471E0CE0143960E9451
:1020E0000B0BCE0143960E94D80897FF90C16FE575
:1020F00071E0CE010D960E940B0BCE010D960E9451
:10210000D80897FF8AC163E571E0CE0107960E9467
:102110000B0BCE0107960E94D80897FF84C163E697
:1021200071E0CE0101960E940B0BCE0101960E9438
:10213000D808991F9927991F812FD12EE12EF12EB2
:10214000012F9093B401882321F0CE0101960E94C3
:10215000030BDD2021F0CE0107960E94030BEE2039
:1021600021F0CE010D960E94030BFF2021F0CE013D
:1021700043960E94030B002321F0CE0149960E9452
:10218000030BCE014F960E94030B60EB71E083EBD3
:1021900092E00E94E30C88E593E00E942B0B809173
:1021A000B401882309F4CBCE60E870E083EB92E0C1
:1021B0000E94190488E593E00E942B0B609158035C
:1021C000709159036115710509F433C140915C03A5
:1021D00050915D0382E593E00E94E20A67E671E0B8
:1021E000CE0107960E940B0B61E471E0CE010196CF
:1021F0000E940B0BAE01495F5F4FBE016F5F7F4FC7
:1022000082E593E00E942C09CE0101960E94030B07
:10221000CE0107960E94030B69E671E0CE01079696
:102220000E940B0B69E571E0CE0101960E940B0B39
:10223000AE01495F5F4FBE016F5F7F4F82E593E064
:102240000E942C09CE0101960E94030BCE01079635
:102250000E94030B66E771E0CE0107960E940B0B0C
:1022600065E471E0CE0101960E940B0BAE01495F5F
:102270005F4FBE016F5F7F4F82E593E00E942C09A4
:10228000CE0101960E94030BCE0107960E94030B1C
:102290006BE671E0CE0107960E940B0B69E471E0DA
:1022A000CE0101960E940B0BAE01495F5F4FBE014C
:1022B0006F5F7F4F82E593E00E942C09CE0101966B
:1022C0000E94030BCE0107960E94030B68E670E0A4
:1022D00083EB92E00E94190482E593E00E942B0BAD
:1022E000809156039091570301979093CB0180936F
:1022F000CA010E94E60B0E94C70860E080E00E94CD
:10230000940868E573E08EE593E00E940B0461E0B9
:1023100080E00E94940862E573E08EE593E00E94FD
:102320000B0461E089E00E9494086DE671E08EE59F
:1023300093E00E94E30C6091CA017091CB018EE59D
:1023400093E00E94B00B68E873E180E090E00E94A7
:10235000C4031092690360E08EE593E00E944A0591
:10236000A4960FB6F894DEBF0FBECDBFDF91CF911C
:102370001F910F91FF90EF90DF9008950FEF1FEFE7
:102380001CCCCE0101960E94D00A43CC0E94201E94
:1023900089819A8190935903809358038B819C8102
:1023A00090935B0380935A038D819E8190935D038C
:1023B00080935C031A8219821C821B8251CC80E0BC
:1023C000E12CF12C00E010E090E086CD80E0E12CE3
:1023D000F12C00E011E0F8CF80E0E12CF12C01E0DD
:1023E000F9CF80E0E12CFF24F394F9CF80E0EE24D4
:1023F000E394F9CF80E0D12CE12CF12C00E090E0C7
:10240000A0CE012F80E0D12CE12CF12CF8CFF12EC1
:10241000012F80E0D12CE12CF2CFE12EF12E012F03
:1024200080E0D12CECCFD12EE12EF12E012F80E0D7
:10243000E6CF82E593E00E94D00AD0CE1F920F92A1
:102440000FB60F9211242F933F934F935F936F9387
:102450007F938F939F93AF93BF93EF93FF9380915D
:10246000B900887F803609F44AC0F0F5883209F453
:10247000A7C018F5803109F49BC0B8F4882309F48B
:10248000F9C0883009F494C0FF91EF91BF91AF91EA
:102490009F918F917F916F915F914F913F912F917C
:1024A0000F900FBE0F901F901895883109F488C0C7
:1024B000803251F78093800214C0803409F49DC0AB
:1024C00040F48033B9F38833F9F68093800285ECC9
:1024D000B0C0803509F485C0883509F496C08834C9
:1024E00099F60E94F408D0CF883909F48CC038F5E9
:1024F000883729F050F4883611F0803729F683E0C8
:102500008093810210927F0257C0883809F47BC003
:10251000803919F0803809F0B7CF80917F0280327E
:1025200008F071C0E0917F0281E08E0F80937F02FE
:102530008091BB00F0E0E15AFD4F80833DC0803BBD
:1025400039F0E0F4803A09F479C0883A09F09CCF78
:1025500084E08093810210925C0210925B02E09111
:102560005902F0915A02099580915B0281110FC0C6
:1025700081E080935B021092390209C0803C09F42B
:10258000A6CF883C09F4A3CF883B09F07DCFE0912A
:102590005C0281E08E0F80935C02F0E0E75CFD4F0F
:1025A00080818093BB0090915C0280915B0229C086
:1025B0008091A6028093BB0085EC8093BC0064CF21
:1025C0009091A5028091A402981758F5E091A50278
:1025D00081E08E0F8093A502F0E0EC57FD4F8081E3
:1025E000E9CFE091A50281E08E0F8093A502809152
:1025F000BB00F0E0EC57FD4F80839091A5028091E5
:10260000A4029817C8F285E8D8CFE091A50281E02E
:102610008E0F8093A5028091BB00F0E0EC57FD4F38
:1026200080838091830281115CCF81E0809382025C
:1026300084EA8093BC001092810226CF85EC8093BF
:10264000BC001092810280917F02803230F4E091D0
:102650007F02F0E0E15AFD4F108260917F0270E04E
:10266000E0915D02F0915E028FE592E00995109293
:102670007F020ACF1092800234CF1F920F920FB6C2
:102680000F9211242F933F938F939F93AF93BF93F8
:102690008091E6019091E701A091E801B091E901F4
:1026A0003091E50123E0230F2D3758F50196A11D48
:1026B000B11D2093E5018093E6019093E701A0937B
:1026C000E801B093E9018091EA019091EB01A091BA
:1026D000EC01B091ED010196A11DB11D8093EA01BD
:1026E0009093EB01A093EC01B093ED01BF91AF91FA
:1026F0009F918F913F912F910F900FBE0F901F9040
:10270000189526E8230F0296A11DB11DD2CF1F9266
:102710000F920FB60F9211242F933F934F935F9315
:102720006F937F938F939F93AF93BF93EF93FF9399
:1027300083EB92E00E94BB04FF91EF91BF91AF91B8
:102740009F918F917F916F915F914F913F912F91C9
:102750000F900FBE0F901F9018951F920F920FB6FB
:102760000F9211242F938F939F93EF93FF93E091F8
:10277000C302F091C4028081E091C902F091CA02C3
:1027800082FD1BC090818091CC028F5F8F7320915E
:10279000CD02821741F0E091CC02F0E0ED54FD4F04
:1027A000958F8093CC02FF91EF919F918F912F9104
:1027B0000F900FBE0F901F9018958081F4CFEF926D
:1027C000FF920F931F93CF93E7EAF2E013821282F6
:1027D00088EE93E0A0E0B0E084839583A683B7837E
:1027E00022E131E031832083E3EBF2E013821282B5
:1027F00084839583A683B78384E291E09183808369
:1028000085EC90E09587848784EC90E097878687B5
:1028100080EC90E0918B808B81EC90E0938B828BAD
:1028200082EC90E0958B848B86EC90E0978B868B86
:10283000118E128E138E148E10925103E7E7F3E07F
:1028400081E08083C2E0C1830E94FA02809150033C
:10285000837F809350030E945F0200EB10E0F80139
:1028600080818368808381EBE82EF12CF701C0839F
:102870001092B30061E08BE00E94C902E5E7F3E04B
:10288000C083C1830E94FA02809150038D7E8093A1
:1028900050030E945F02F801808183628083F70108
:1028A000C0831092B40061E083E00E94C9020AE68E
:1028B00013E08AE0F801808389E08183128261E07D
:1028C0008AE00E94C90260E0F80181810E94C90289
:1028D00080E29EE4A0E0B0E0F80187839087A187C2
:1028E000B287EEE5F3E01382128286E391E09183F2
:1028F000808387E2848380E18187C287138660E4D6
:1029000071E088E593E00E940B0B60E471E082E5E2
:1029100093E0CF911F910F91FF90EF900C940B0BD0
:10292000789484B5826084BD84B5816084BD85B5AA
:10293000826085BD85B5816085BD80916E008160B6
:1029400080936E001092810080918100826080935C
:10295000810080918100816080938100809180005E
:102960008160809380008091B10084608093B10089
:102970008091B00081608093B00080917A00846083
:1029800080937A0080917A00826080937A008091AF
:102990007A00816080937A0080917A0080688093C9
:1029A0007A001092C100E091C302F091C40282E06B
:1029B0008083E091BF02F091C0021082E091C102D9
:1029C000F091C2028FEC80831092CB02E091C7029B
:1029D000F091C80286E08083E091C502F091C602C2
:1029E000808180618083E091C502F091C602808180
:1029F00088608083E091C502F091C6028081806882
:102A00008083E091C502F091C60280818F7D808332
:102A100060E771E083EB92E00E941C0B6EE371E0D3
:102A200083EB92E00E941C0B64E670E088E593E083
:102A30000E94720A64E670E082E593E00E94720AE6
:102A400060E08EE00E94C90260E08FE00E94C9024F
:102A500060E080E10E94C90260E081E10E94C90259
:102A600060E082E00E94C9021092300210922F02B0
:102A700010923202109231020E948A0287E591E0A0
:102A800090935A028093590288E591E090935E02F8
:102A900080935D021092630380916803823018F086
:102AA00098E0909363038093660362E370E080E0B4
:102AB00090E00E94C403609169038EE593E00E9458
:102AC0004A0568EE73E080E090E00E94C40360E392
:102AD0008EE593E00E946408CBE4D6E4CE01019732
:102AE000F1F760E38EE593E00E9464082197F1F727
:102AF00060E38EE593E00E94640883E592E001972D
:102B0000F1F760E28EE593E00E9464086091630350
:102B1000606240E08EE593E00E947D0884E080934F
:102B2000640340E06CE08EE593E00E947D080E9423
:102B3000C70882E08093650340E066E08EE593E09D
:102B40000E947D0840E062E08EE593E00E947D08EF
:102B50008BE39FE10197F1F788E08093690360E0E0
:102B60008EE593E00E944A056CE887E793E00E94B7
:102B7000340668E785E793E00E9434060E94D70692
:102B800068E771E083EB92E00E941C0B6EE371E05A
:102B900083EB92E00E941C0BC2E0D0E00E9437035E
:102BA000883D924008F4A2C0E090D201F090D30199
:102BB000F092D101E092D0010E94E1068C01909345
:102BC000D3018093D201E816F90641F30E94C708A9
:102BD00060E080E00E949408B8018EE593E00E94D6
:102BE000B00B60E083E00E9494088091D201909144
:102BF000D301BE010E94341DBC018EE593E00E940A
:102C0000B00B8091D2019091D30195958795BE012B
:102C10000E94341DBC018EE593E00E94B00B8091B0
:102C2000D2019091D3019595879595958795BE0191
:102C30000E94341DBC018EE593E00E94B00B809190
:102C4000D2019091D30163E0959587956A95E1F75C
:102C5000BE010E94341DBC018EE593E00E94B00BC2
:102C60008091D2019091D30174E0959587957A95E2
:102C7000E1F7BE010E94341DBC018EE593E00E9485
:102C8000B00B8091D2019091D3016EE771E0803159
:102C9000910559F068E871E08130910531F062E901
:102CA00071E0029711F06CE971E08EE593E00E940B
:102CB000E30C61E080E00E94940866EA71E08EE532
:102CC00093E00E94E30C6CE870E08EE593E00E94D4
:102CD000B00B69EA71E08EE593E00E94E30C68E7CF
:102CE00070E08EE593E00E94B00B58CF86E091E053
:102CF0000E943E0B0E9437038033924038F461E01B
:102D000070E080E090E00E94C403F4CF8091D20193
:102D10009091D3018130910569F46CE887E793E0E5
:102D20000E94340668E785E793E00E9434060E941B
:102D3000CD06FFCF8330910509F055C00E94CD0626
:102D40008091D2019091D3019093D1018093D001D1
:102D50000E94E1069093D3018093D201009781F302
:102D6000039771F30E94F7036B017C018091D201FC
:102D70009091D3019093D1018093D0010E94E106FC
:102D80009093D3018093D201892B81F70E94F7039E
:102D90009B01AC012C193D094E095F0969017A01BB
:102DA0002AE0BA01A60183EB92E00E94640B6EE375
:102DB00071E083EB92E00E941C0B0E94C70860E068
:102DC00080E00E9494086EEA71E08EE593E00E9434
:102DD000E30C2AE0B701A6018EE593E00E94640BA4
:102DE0000E94D706FDCF8230910509F088C081E0AE
:102DF00090E09093C7018093C6011092690360E050
:102E00008EE593E00E944A050E94C70860E080E0DA
:102E10000E94940888EB91E0A0E0B0E080937103F9
:102E200090937203A0937303B093740382E091E0D4
:102E30000E943E0B68EE73E080E090E00E94C403C5
:102E400080E4882E8CE9982EA12CB12C98E0492E94
:102E500028EEC22E23E0D22EE12CF12C30E0632E9E
:102E600030E0732E552453940E94F7036093E101E0
:102E70007093E2018093E3019093E40186E391E093
:102E80000E943E0B8091D2019091D3019093D10189
:102E90008093D0010E94E1069093D3018093D201E8
:102EA0000E94E50CC091D201D091D301C032D1056E
:102EB00008F0FFC1FE01E15AF84E0C946A1D8F170D
:102EC000531953195319331844192F18B818561990
:102ED000441959195919561844195919B818561935
:102EE0004D194419441944195919441944195619CA
:102EF0004419591959195918441959181219409750
:102F000009F07BCF6CE887E793E00E94340668E71E
:102F100085E793E00E9434060E94C306FFCF8091AC
:102F2000CE019091CF019C012B7F2230310549F0D9
:102F30009C01277F2430310521F08830910509F06C
:102F400080C00E94F90B9093CD018093CC01892B16
:102F5000C1F48EE291E00E943E0B0E94CD066CE827
:102F600087E793E00E94340668E785E793E00E94D4
:102F7000340668E770E080E090E00E94C4030E949D
:102F8000CB0A0E9430088091D401882309F47ACFBB
:102F90001092D4010E94F7036093DD017093DE016B
:102FA0008093DF019093E0010E94B70D0E94F70328
:102FB0006093D9017093DA018093DB019093DC0177
:102FC00088E791E00E943E0B8091D2019091D3015D
:102FD0009093D1018093D0010E94E1069093D30198
:102FE0008093D2010E94E50CC091D201D091D3010F
:102FF000C032D10508F0A5C3FE01EF5FF74E0C9477
:103000006A1D5C19341A341A341A401A981B3D1A76
:10301000F51A611A981BA11BA11B5E1A981BA11B14
:10302000F51A611A341A981B981B981BA11B981B40
:10303000981B611A981BA11BA11B641A981B641A88
:103040004C1B8130910529F484E291E00E943E0BF3
:1030500098CF409709F095CF89E191E0F7CF0E9492
:10306000AF066CE81AC08091C8019091C9018B7FAE
:103070008230910569F40E94CD066CE887E793E001
:103080000E94340664E685E793E00E94340679CF17
:10309000089749F40E94CD0668E787E793E00E940D
:1030A000340668E7F0CF0E94CD06DBCF0E94A5066C
:1030B000D8CF0E94CD066CE887E793E00E943406E3
:1030C00068E785E793E00E94340662E370E080E001
:1030D00090E00E94C403D093D101C093D0010E941C
:1030E000E1068C019093D3018093D201C817D907D0
:1030F00081F065E070E080E090E00E94C4031093EE
:10310000D1010093D0010E94E1069093D3018093F6
:10311000D20166E171E083EB92E00E941904809194
:10312000D2019091D3010E94E60B8091D20190913F
:10313000D3018D7F4C9709F024CF0E94F90B909317
:10314000CD018093CC01181619064CF48091C6016C
:103150009091C701892B31F48CE40E949A0A0E9455
:1031600042070FCF83E50E949A0A0E94CD0609CF3D
:103170000E94CD066CE887E793E00E94340668E77A
:1031800085E793E00E94340662E370E080E090E01F
:103190000E94C403D093D101C093D0010E94E106E4
:1031A0008C019093D3018093D201C817D90781F085
:1031B00065E070E080E090E00E94C4031093D101CC
:1031C0000093D0010E94E1069093D3018093D20135
:1031D00063E171E083EB92E00E9419048091D201D7
:1031E0009091D3010E94E60B8091D2019091D3017E
:1031F000877F079709F0C5CE0E94F90B9093CD0108
:103200008093CC011816190654F48091C601909150
:10321000C701892B09F4A6CF82E50E949A0A0E9471
:10322000B907AFCE8DE091E00E943E0B0E94F90BF2
:103230009093CD018093CC0197FD08C08091C60189
:103240009091C701892B09F487CFE6CF88E50E94CA
:103250009A0A0E94D70662E087E793E00E944B0635
:1032600062E085E793E00E944B0662E370E080E055
:1032700090E00E94C4030E94D7060E94CB0A0E94DD
:10328000D7065092D4017DCE0E94CD0666E487E732
:1032900093E00E9434066CE3F6CE8091C6019091D3
:1032A000C701892B19F40E94C306DBCE0E94B90620
:1032B000D8CE0E94D70665CE8091CE019091CF01E5
:1032C0009C012B7F2230310549F09C01277F24305F
:1032D000310521F08830910509F0B8C00E94F90B42
:1032E0009093CD018093CC01892BC1F480E791E0CC
:1032F0000E943E0B0E94CD066CE887E793E00E9497
:10330000340668E785E793E00E94340668E770E0DA
:1033100080E090E00E94C4030E94CB0A0E94D7067E
:103320008091CA019091CB0101979093CB0180933A
:10333000CA015092D4010E9430088091D4018823A0
:1033400009F442CE1092D4010E94F7036093D50194
:103350007093D6018093D7019093D8018092710326
:1033600090927203A0927303B09274034092690327
:1033700060E08EE593E00E944A050E94C70860E085
:1033800080E00E94940868E573E08EE593E00E9477
:103390000B0460E089E00E9494086091DD01709167
:1033A000DE018091DF019091E0010091E101109137
:1033B000E2012091E3013091E401601B710B820B6B
:1033C000930BA70196010E94481DBA01A9012AE0AA
:1033D0008EE593E00E94640B61E080E00E94940817
:1033E00062E573E08EE593E00E940B0461E089E002
:1033F0000E9494086091D5017091D6018091D70107
:103400009091D8010091D9011091DA012091DB014E
:103410003091DC01601B710B820B930BA7019601AD
:103420000E94481DBA01A9012AE08EE593E00E949E
:10343000640B0E943703883D924008F485C161E027
:1034400070E080E090E00E94C403F3CF81309105EA
:1034500029F486E691E00E943E0B60CF409709F088
:103460005DCF8BE591E0F7CF0E94C3066CE887E75C
:1034700093E00E94340668E713C00E94AF06F6CFBF
:103480008091C8019091C9018B7F8230910569F4C8
:103490000E94CD066CE887E793E00E94340664E65C
:1034A00085E793E00E94340646CF089721F40E94F6
:1034B000CD0668E7DCCF0E94CD06D8CF0E94A506D6
:1034C000D5CF0E94B906D2CF0E94CD066CE887E71F
:1034D00093E00E94340668E785E793E00E94340693
:1034E00062E370E080E090E00E94C403D093D101D9
:1034F000C093D0010E94E1068C019093D301809388
:10350000D201C817D90751F065E070E080E090E083
:103510000E94C4031093D1010093D0010E94E106E0
:103520009093D3018093D20168E571E083EB92E040
:103530000E9419048091D2019091D3010E94E60B60
:103540008091D2019091D3018D7F4C9709F0F3CEF9
:1035500060E571E083EB92E00E9419040E94F90B90
:103560009093CD018093CC0118161906DCF580915B
:10357000CA019091CB010E941B010E94510B60E097
:103580008AE00E9494088091CA019091CB010E9428
:103590001B01682F8EE593E00E94040462EB71E04A
:1035A0008EE593E00E94E30C8091CA019091CB01DB
:1035B00001970E941B01682F8EE593E00E9404048E
:1035C000C091CA01D091CB01CE010E941B0183376B
:1035D00009F0A3C00E94CD062197D093CB01C093E0
:1035E000CA01A9CE0E944207A6CE0E94CD066CE871
:1035F00087E793E00E94340668E785E793E00E943E
:10360000340662E370E080E090E00E94C403D0934F
:10361000D101C093D0010E94E1068C019093D301A7
:103620008093D201C817D90781F065E070E080E08F
:1036300090E00E94C4031093D1010093D0010E9436
:10364000E1069093D3018093D2016DE471E083EBA6
:1036500092E00E9419048091D2019091D3010E94BE
:10366000E60B8091D2019091D301877F079709F0F3
:1036700062CE66E471E083EB92E00E9419040E943E
:10368000F90B9093CD018093CC01181619060CF418
:103690006ECF0E94B9074FCE62E471E083EB92E0F7
:1036A0000E9419040E94F90B9093CD018093CC01E4
:1036B0008091CA019091CB010E941B010E94510B85
:1036C00060E08AE00E9494088091CA019091CB0149
:1036D0000E941B01682F8EE593E00E94040462EBB8
:1036E00071E08EE593E00E94E30C8091CA01909115
:1036F000CB0101970E941B01682F8EE593E00E9489
:1037000004048091CC019091CD01181619060CF497
:1037100057CF892B09F00FCE53CF823719F40E946F
:10372000B9075ACF8C3609F057CF0E94420754CFC1
:103730000E94CD0666E487E793E00E9434066CE3BE
:10374000AFCE0E94D706F7CD0E9437038033924058
:1037500038F461E070E080E090E00E94C403F4CFB0
:103760001092690360E08EE593E00E944A0550E004
:1037700040E060E471E088E593E00E94E20A6114B1
:10378000710409F471CB0E94A704882309F46CCB5F
:103790000E94000069CB82E593E00E94030B88E55C
:1037A00093E00C94030BE89409C097FB3EF49095CA
:1037B0008095709561957F4F8F4F9F4F9923A9F00A
:1037C000F92F96E9BB279395F69587957795679599
:1037D000B795F111F8CFFAF4BB0F11F460FF1BC0DD
:1037E0006F5F7F4F8F4F9F4F16C0882311F096E970
:1037F00011C0772321F09EE8872F762F05C066231E
:1038000071F096E8862F70E060E02AF09A95660FD6
:10381000771F881FDAF7880F9695879597F908958F
:103820000E94231C0C94941C0E94861C38F00E9459
:103830008D1C20F0952311F00C947D1C0C94831C9E
:1038400011240C94C81C0E94A51C70F3959FC1F311
:10385000950F50E0551F629FF001729FBB27F00D3E
:10386000B11D639FAA27F00DB11DAA1F649F662793
:10387000B00DA11D661F829F2227B00DA11D621FE2
:10388000739FB00DA11D621F839FA00D611D221F9C
:10389000749F3327A00D611D231F849F600D211D80
:1038A000822F762F6A2F11249F5750409AF0F1F003
:1038B00088234AF0EE0FFF1FBB1F661F771F881F6C
:1038C00091505040A9F79E3F510580F00C947D1C0B
:1038D0000C94C81C5F3FE4F3983ED4F3869577952B
:1038E0006795B795F795E7959F5FC1F7FE2B880F12
:1038F000911D9695879597F9089597F99F6780E8A8
:1039000070E060E008959FEF80EC089500240A9431
:103910001616170618060906089500240A941216AA
:103920001306140605060895092E0394000C11F4DD
:10393000882352F0BB0F40F4BF2B11F460FF04C08A
:103940006F5F7F4F8F4F9F4F089557FD9058440FE3
:10395000551F59F05F3F71F04795880F97FB991FEE
:1039600061F09F3F79F087950895121613061406AB
:10397000551FF2CF4695F1DF08C016161706180638
:10398000991FF1CF86957105610508940895E89413
:10399000BB2766277727CB0197F908952F923F928F
:1039A0004F925F926F927F928F929F92AF92BF924F
:1039B000CF92DF92EF92FF920F931F93CF93DF93FB
:1039C000CDB7DEB7CA1BDB0B0FB6F894DEBF0FBE58
:1039D000CDBF09942A88398848885F846E847D84A5
:1039E0008C849B84AA84B984C884DF80EE80FD80A7
:1039F0000C811B81AA81B981CE0FD11D0FB6F8941D
:103A0000DEBF0FBECDBFED0108950E94AD1C88F052
:103A10009F5798F0B92F9927B751B0F0E1F0660F92
:103A2000771F881F991F1AF0BA95C9F714C0B130D3
:103A300091F00E94C71CB1E008950C94C71C672F39
:103A4000782F8827B85F39F0B93FCCF38695779502
:103A50006795B395D9F73EF49095809570956195EB
:103A60007F4F8F4F9F4F089597FB072E16F40094BA
:103A700007D077FD09D00E94701D07FC05D03EF4E9
:103A8000909581959F4F0895709561957F4F08950A
:103A9000A1E21A2EAA1BBB1BFD010DC0AA1FBB1F52
:103AA000EE1FFF1FA217B307E407F50720F0A21BC4
:103AB000B30BE40BF50B661F771F881F991F1A9431
:103AC00069F760957095809590959B01AC01BD015B
:103AD000CF010895EE0FFF1F0590F491E02D09949A
:103AE000AA1BBB1B51E107C0AA1FBB1FA617B70724
:103AF00010F0A61BB70B881F991F5A95A9F7809540
:103B00009095BC01CD0108950F931F93CF93DF9340
:103B10008230910510F482E090E0E0917B03F09117
:103B20007C0330E020E0B0E0A0E0309799F421156C
:103B3000310509F44AC0281B390B24303105D8F56A
:103B40008A819B816115710589F1FB0193838283D1
:103B5000FE0111C04081518102811381481759072C
:103B6000E0F04817590799F4109761F012960C93FA
:103B7000129713961C933296CF01DF91CF911F912C
:103B80000F91089500937B0310937C03F4CF2115CC
:103B9000310551F04217530738F0A901DB019A01B2
:103BA000BD01DF01F801C1CFEF01F9CF90937C0394
:103BB00080937B03CDCFFE01E20FF31F819391939E
:103BC0002250310939832883D7CF2091790330914E
:103BD0007A03232B41F420910201309103013093A9
:103BE0007A0320937903209100013091010121157E
:103BF000310541F42DB73EB74091040150910501C4
:103C0000241B350BE0917903F0917A03E217F30757
:103C1000A0F42E1B3F0B2817390778F0AC014E5F3C
:103C20005F4F2417350748F04E0F5F1F50937A03FC
:103C300040937903819391939FCFF0E0E0E09CCF94
:103C4000CF93DF930097E9F0FC0132971382128241
:103C5000A0917B03B0917C03ED0130E020E0109750
:103C6000A1F420813181820F931F2091790330913B
:103C70007A032817390709F061C0F0937A03E093BB
:103C80007903DF91CF910895EA01CE17DF07E8F5B8
:103C90004A815B819E0141155105B1F7E901FB8322
:103CA000EA8349915991C40FD51FEC17FD0761F4C0
:103CB000808191810296840F951FE9019983888301
:103CC000828193819B838A83F0E0E0E012968D915C
:103CD0009C9113970097B9F52D913C911197CD01C7
:103CE0000296820F931F2091790330917A0328174F
:103CF000390739F6309751F510927C0310927B0307
:103D0000B0937A03A0937903BCCFD383C28340815D
:103D10005181840F951FC817D90761F44E5F5F4F1B
:103D200088819981480F591F518340838A819B81E3
:103D3000938382832115310509F0B0CFF0937C0382
:103D4000E0937B039ECFFD01DC01C0CF1382128282
:103D5000D7CFB0E0A0E0EFEAFEE10C94D01C8C01DC
:103D6000009751F4CB010E94841D8C01C801CDB78E
:103D7000DEB7E0E10C94EC1CFC01E60FF71F9C01A0
:103D800022503109E217F30708F49DC0D901CD9103
:103D9000DC911197C617D70798F0C530D10530F3DD
:103DA000CE0104978617970708F3C61BD70B2297F7
:103DB000C193D1936D937C93CF010E94201ED6CFE7
:103DC0005B01AC1ABD0A4C018C0E9D1EA0917B03B9
:103DD000B0917C03512C412CF12CE12C109731F542
:103DE0008091790390917A038815990509F05CC058
:103DF0004616570608F058C08091000190910101C5
:103E0000009741F48DB79EB7409104015091050190
:103E1000841B950BE817F90708F055C0F0937A0357
:103E2000E0937903F90171836083A0CF8D919C9118
:103E3000119712966C90129713967C901397A81571
:103E4000B90559F56C0142E0C40ED11CCA14DB045B
:103E500020F1AC014A195B09DA011296159780F03E
:103E60006282738251834083D9016D937C93E11404
:103E7000F10471F0D7011396FC93EE93129776CF6D
:103E800022968C0F9D1FF90191838083F301EFCF60
:103E9000F0937C03E0937B0369CF4816590608F43E
:103EA0002C017D01D3019ACFCB010E94841D7C019E
:103EB000009749F0AE01B8010E94661FC8010E9438
:103EC000201E870153CF10E000E050CFFB01DC0142
:103ED00002C001900D9241505040D8F708956817E4
:103EE000790768F4FB01DC01E40FF51FA40FB51F8F
:103EF00002C002900E9241505040D8F708950C94A1
:103F0000661FFC018191861721F08823D9F7992734
:103F100008953197CF010895FB01DC0101900D92C6
:103F20000020E1F70895FB0151915523A9F0BF014D
:103F3000DC014D9145174111E1F759F4CD01019094
:103F4000002049F04D9140154111C9F3FB01411189
:103F5000EFCF81E090E00197089510E0C0EFD0E04E
:103F600004C0FE010E946A1D2196C13FD107C9F716
:043F7000F894FFCFF3
:103F740000007D0380000000400014005400000095
:103F84000000B0018301310659017C0169015A0125
:103F940000000000DD043D046A042A059B04790442
:103FA4008D0400000000D2083D04310603040D0A0C
:103FB4000042004C4252004C42530052424C0053C7
:103FC400424C00534253004C424C00524253005363
:103FD40042520052425200620072007300203A00C2
:103FE400496E697469616C0020776169740020749A
:103FF4006573742046574400207465737420524FCF
:104004005400205220616C676F726900204C20615B
:104014006C676F72690052200020204C2000743DB0
:0440240020003E003A
:00000001FF
