:100000000C94F1000C9419010C9419010C94190131
:100010000C9419010C9419010C9419010C941901F8
:100020000C9419010C9419010C9419010C941901E8
:100030000C9419010C9419010C9419010C941901D8
:100040000C9409130C9419010C9479130C94531308
:100050000C9419010C9419010C9419010C941901B8
:100060000C94EA110C941901204F7074696D616C45
:1000700020706174685F726576657273653A2000FE
:10008000204F7074696D616C20706174683A200053
:100090002053656172636820706174683A20005370
:1000A000696D706C696679506174680049276D20CC
:1000B0007468696E6B696E6721210020756E6B6EC6
:1000C0006F776E2000200020002066696E697368DB
:1000D000206D617A65002063616E20676F20737404
:1000E00072657373002066696E697368206D617A4A
:1000F0006500207374726169676874436865636B37
:10010000200020676F0020726561647900203D3314
:10011000313D00205E00205E002072696768742017
:100120006F757400206C656674206F7574002055BF
:100130002D7475726E004D617A65536F6C76696EC1
:1001400067002033310020372F31355200205E0008
:100150002032382F33304C00205E002072696768EF
:1001600074206F757400206C656674206F75740060
:100170002046696E6973680052756E6E696E6742DB
:1001800061636B0000000000240027002A000000CB
:100190000000250028002B0000000000230026009E
:1001A00029000404040404040404020202020202FA
:1001B000030303030303010204081020408001022B
:1001C00004081020010204081020000000080002AA
:1001D0000100000304070000000000000000AB1352
:1001E000771B11241FBECFEFD8E0DEBFCDBF23E0C9
:1001F000A4EBB1E001C01D92A937B207E1F711E00D
:10020000A0E0B1E0ECECFEE302C005900D92A43B4F
:10021000B107D9F710E0C0EFD0E004C02197FE018C
:100220000E94161DCF3ED107C9F70E945C140C94A2
:10023000591F0C94000020915203309153038217F0
:10024000930760F420914E0330914F03211531053F
:1002500029F0280F391FF9018081089580E0089561
:1002600020915702260F3327331F21323105ECF43A
:1002700020917D02FC0190E080E0243069F082E072
:100280000895A09157022191AC014B5C5D4FA40FE2
:10029000B52FB11D2C930196861798F380915702C4
:1002A000680F6093570280E0089581E008950895F3
:1002B00008950895E0912C0280912B02E81730F404
:1002C000F0E0E55FFD4F808190E008958FEF9FEFB4
:1002D000089590912C0280912B022FEF3FEF9817F9
:1002E00048F4E92FF0E0E55FFD4F208130E09F5FAB
:1002F00090932C02C901089580912B0290912C02B9
:10030000891B990B0895CF92DF92EF92FF920F9382
:100310001F93CF93DF937C01CB018A0120910A02C6
:10032000222389F0EB016B01C40ED51ECC15DD052F
:1003300069F06991D701ED91FC910190F081E02D78
:10034000C7010995F3CF642F0E943001C801DF91E6
:10035000CF911F910F91FF90EF90DF90CF90089574
:10036000CF93DF931F92CDB7DEB7698320910A0246
:100370002223F9F020912D02203258F021E030E0C4
:10038000FC013383228390E080E00F90DF91CF91D6
:10039000089580912E02E82FF0E0E651FE4F9981FA
:1003A00090838F5F80932E0280932D0281E090E0F6
:1003B000ECCF61E0CE0101960E943001F7CF83308F
:1003C00081F028F4813099F08230A9F008958730C7
:1003D000A9F08830C9F08430B1F4809180008F7D1D
:1003E00003C0809180008F7780938000089584B54A
:1003F0008F7784BD089584B58F7DFBCF8091B00049
:100400008F778093B00008958091B0008F7DF9CFF1
:10041000CF93DF93282F30E0F901E653FE4F84910C
:10042000F901EA54FE4FD491F901EE55FE4FC49103
:10043000CC23A1F081110E94DF01EC2FF0E0EE0F40
:10044000FF1FE856FE4FA591B491EC91ED2381E09A
:1004500090E009F480E0DF91CF91089580E090E092
:10046000FACF1F93CF93DF93282F30E0F901E653A3
:10047000FE4F8491F901EA54FE4FD491F901EE55F3
:10048000FE4FC491CC23A9F0162F81110E94DF01E9
:10049000EC2FF0E0EE0FFF1FE257FE4FA591B49155
:1004A0008FB7F894EC91111108C0D095DE23DC933E
:1004B0008FBFDF91CF911F910895DE2BF8CFCF939F
:1004C000DF9360E08CE00E94310260E088E00E94EF
:1004D0003102C7E0D0E060E084E00E943102809108
:1004E0004C0390E00C2E02C0959587950A94E2F794
:1004F00061E080FF60E088E00E94310261E084E01A
:100500000E943102219738F761E08CE0DF91CF91B2
:100510000C94310210927D0281E080937F02109250
:100520007E0261E082E10E94310261E083E10E948B
:100530003102E9EBF0E080818E7F808380818D7FC6
:10054000808388E48093B80085E48093BC0008959C
:10055000CF93DF9391E0909334028823B9F0C09158
:10056000B800D091BA008091BC008A7B8093BC0017
:1005700060E082E10E94310260E083E10E9431028A
:100580000E948A02D093BA00C093B800DF91CF9145
:100590000895CF93DF9390E0FC01EA54FE4F24913D
:1005A0008E559E4FFC0184918823D1F090E0880FF6
:1005B000991FFC01EC57FE4FA591B491FC01E25745
:1005C000FE4FC591D49161110EC09FB7F8948C91E4
:1005D000E22FE0958E238C932881E223E8839FBF4E
:1005E000DF91CF9108958FB7F894EC91E22BEC93C3
:1005F0008FBFF6CF61E08CE00E94C90261E087E026
:100600000E94C90261E088E00E94C90261E084E0C2
:100610000E94C90210924C030E945F0260E087E0D2
:100620000C9431023FB7F8948091E6019091E70174
:10063000A091E801B091E90126B5A89B05C02F3F24
:1006400019F00196A11DB11D3FBFBA2FA92F982FF8
:100650008827BC01CD01620F711D811D911D42E0F3
:10066000660F771F881F991F4A95D1F708950F933A
:100670001F9380916803882329F061E080916603CD
:100680000E94C90260E0809166030E94310283E00B
:1006900090E00197F1F761E0809166030E943102DA
:1006A00083E290E00197F1F760E0809166030E9499
:1006B000310280916803882329F060E0809166030D
:1006C0000E94C9020E9412036093690370936A0337
:1006D00080936B0390936C03809167030E940802E0
:1006E000892BD9F40E9412030091690310916A03C7
:1006F00020916B0330916C03601B710B820B930B89
:1007000000916D0310916E0320916F03309170037F
:100710000617170728073907F8F60E941203609397
:10072000690370936A0380936B0390936C038091C9
:1007300067030E940802892BD9F00E9412030091DE
:10074000690310916A0320916B0330916C03601B65
:10075000710B820B930B00916D0310916E0320912E
:100760006F03309170030617170728073907F8F64B
:100770000E9412032091690330916A03CB01821B0E
:10078000930B1F910F9108958F929F92AF92BF92FA
:10079000CF92DF92EF92FF926B017C010E941203D5
:1007A0004B015C01C114D104E104F104B9F00E94D1
:1007B0001203681979098A099B09683E734081050B
:1007C000910580F321E0C21AD108E108F10888EE12
:1007D000880E83E0981EA11CB11CE4CFFF90EF901F
:1007E000DF90CF90BF90AF909F908F9008952FB7DC
:1007F000F8946091E2017091E3018091E40190919D
:10080000E5012FBF08950895DC01ED91FC91019061
:10081000F081E02D0994DB0114964D915C911597C0
:100820006D917C91DC01ED91FC910280F381E02DD2
:100830000994EF92FF920F931F93CF93DF938C0154
:100840007B01D0E0C0E0F701EC0FFD1F649166234F
:1008500061F0D801ED91FC910190F081E02DC8018B
:100860000995892B11F02196EECFCE01DF91CF9122
:100870001F910F91FF90EF900895AF92BF92CF928A
:10088000DF92EF92FF920F931F93CF93DF936C0150
:100890007B018B01040F151FEB015E01AE18BF0831
:1008A000C017D10759F06991D601ED91FC910190E3
:1008B000F081E02DC6010995892B79F7C501DF91FB
:1008C000CF911F910F91FF90EF90DF90CF90BF904D
:1008D000AF900895FC01538D448D252F30E0842F77
:1008E00090E0821B930B541710F0CF960895019758
:1008F0000895FC01918D828D981761F0A28DAE0F45
:10090000BF2FB11D5D968C91928D9F5F9F73928FCB
:1009100090E008958FEF9FEF0895FC01918D828DF7
:10092000981731F0828DE80FF11D858D90E00895C4
:100930008FEF9FEF0895FC01918D228D892F90E01C
:10094000805C9F4F821B91098F73992708958FEACE
:1009500092E00E949B0421E0892B09F420E0822F81
:10096000089580E090E0892B29F00E94A70481116E
:100970000C9400000895FC01A48DA80FB92FB11D9F
:10098000A35ABF4F2C91848D90E001968F739927C5
:10099000848FA689B7892C93A089B1898C918370A3
:1009A00080648C93938D848D981306C00288F3899C
:1009B000E02D80818F7D80830895EF92FF920F93C9
:1009C0001F93CF93DF93EC0181E0888F9B8D8C8DFB
:1009D00098131AC0E889F989808185FF15C09FB7EF
:1009E000F894EE89FF896083E889F98980818370B2
:1009F000806480839FBF81E090E0DF91CF911F9161
:100A00000F91FF90EF900895F62E0B8D10E00F5F81
:100A10001F4F0F731127E02E8C8D8E110CC00FB657
:100A200007FCFACFE889F989808185FFF5CFCE01EF
:100A30000E94BB04F1CFEB8DEC0FFD2FF11DE35AAB
:100A4000FF4FF0829FB7F8940B8FEA89FB89808172
:100A50008062CFCFCF93DF93EC01888D8823B9F0EC
:100A6000AA89BB89E889F9898C9185FD03C08081B9
:100A700086FD0DC00FB607FCF7CF8C9185FFF2CF36
:100A8000808185FFEDCFCE010E94BB04E9CFDF91CD
:100A9000CF910895CF92DF92EF92FF920F931F9321
:100AA000CF93DF93FC01C48121E020930A02C0931D
:100AB000C10110922E0210922D028385682B83EAC9
:100AC00092E00E94B001D0912D02D13208F092C084
:100AD0000E9412036B017C0180917D02811165C02F
:100AE00082E080937D0281E080937F028FEF80938C
:100AF0007C021092A102D093A002AAEEB1E0E0E83D
:100B0000F2E080E0D81385C01092A2028091A20288
:100B1000CC0FC82BC093A20280917E02813009F0D5
:100B20007CC010927E020E9412036B017C018091B6
:100B3000A2028093BB008091300290913102A0917B
:100B40003202B0913302892B8A2B8B2B99F00E94B1
:100B50001203009130021091310220913202309143
:100B600033026C197D098E099F090617170728079C
:100B70003907E0F18091BC0083FDD9CF85EC8093EB
:100B8000BC000E9412036B017C0180917D028230C7
:100B900009F445C080917C028F3F61F180917C0215
:100BA000803241F180917C0225C080913002909189
:100BB0003102A0913202B0913302892B8A2B8B2B08
:100BC00009F48ACF0E941203009130021091310281
:100BD00020913202309133026C197D098E099F09F0
:100BE000061717072807390708F076CF80912F02DC
:100BF0000E94A80210922E0210922D0210920A0258
:100C0000DF91CF911F910F91FF90EF90DF90CF90E8
:100C100008959D9191938F5F75CF85EEB0CF8091B0
:100C2000300290913102A0913202B0913302892BAF
:100C30008A2B8B2B09F4A9CF0E941203009130025A
:100C40001091310220913202309133026C197D09EA
:100C50008E099F09061717072807390708F095CF4F
:100C6000C5CF90E080E00895FC018081823061F082
:100C700018F4813031F00895833049F0843049F020
:100C800008956093B30008956093B400089567BD1C
:100C9000089568BD0895FC018081823069F028F4D0
:100CA00023E092E0813051F00895833011F126E085
:100CB00090E0843019F0089524E091E06230E1F092
:100CC000643079F1613009F03FC041E050E0BA0191
:100CD00001C0660F9A95EAF780914C03862B01C0FC
:100CE000440F2A95EAF74095482340934C030C940F
:100CF0005F0227E095E0E2CF41E050E0BA0102C098
:100D0000660F771F9A95E2F7CB01809590914C037F
:100D1000892301C0440F2A95EAF7842B80934C0362
:100D2000E6CF41E050E0FA0102C0EE0FFF1F9A95B6
:100D3000E2F7CF0101C0440F2A95EAF7842B809592
:100D400090914C038923EACF089561E083E793E013
:100D50000E944B0664E081E793E00C944B0664E04C
:100D600083E793E00E944B0661E081E793E00C94F7
:100D70004B0661E083E793E00E944B0662E081E767
:100D800093E00C944B0662E083E793E00E944B06ED
:100D900061E081E793E00C944B0661E083E793E028
:100DA0000E944B0661E081E793E00C944B0664E0FF
:100DB00083E793E00E944B0664E081E793E00C94A4
:100DC0004B06CF92DF92EF92FF920F931F93CF9338
:100DD000DF938EE00E940802C1E0D0E0892B11F081
:100DE000D0E0C0E0D093BC01C093BB018FE00E9473
:100DF000080201E010E0892B11F010E000E01093F0
:100E0000BA010093B90180E10E940802EE24E39444
:100E1000F12C892B11F0F12CE12CF092B801E09229
:100E2000B70181E10E940802CC24C394D12C892B04
:100E300011F0D12CC12CD092B601C092B50182E044
:100E40000E94080221E030E0892B11F030E020E020
:100E5000C901880F991F8C0D9D1D880F991F8E0D3C
:100E60009F1D880F991F800F911F880F991F8C0F4E
:100E70009D1FDF91CF911F910F91FF90EF90DF9019
:100E8000CF9008950E94D70660EE71E080E090E078
:100E90000E94C4030E94B9066EE983E793E00E94B2
:100EA00034066CE881E793E00E9434068091CE011D
:100EB0009091CF019C01277F2031310509F046C078
:100EC00068E572E080E090E00E94C4030E94D706CB
:100ED00060EE71E080E090E00E94C4030E94B906D9
:100EE0008091CE019091CF019093CD018093CC0160
:100EF0000E94E1069093CF018093CE019C012D7F4B
:100F00002430310511F00C9749F76CE883E793E042
:100F10000E94340668E781E793E00E9434068091DE
:100F2000CE019091CF019093CD018093CC010E948E
:100F3000E1069093CF018093CE0184309105C1F0FA
:100F40008630910581F40E94C306E9CF8B7F089714
:100F500029F464EF71E080E090E0B6CF60E971E0E1
:100F600080E090E0B1CF0C97D1F60E94B906D7CFC0
:100F700008950E94D70660EE71E080E090E00E9444
:100F8000C4030E94C3066EE983E793E00E9434061F
:100F90006CE881E793E00E9434068091CE01909145
:100FA000CF019C012D7F2130310509F046C068E555
:100FB00072E080E090E00E94C4030E94D70660EED9
:100FC00071E080E090E00E94C4030E94C30680911B
:100FD000CE019091CF019093CD018093CC010E94DE
:100FE000E1069093CF018093CE019C012D7F2430A8
:100FF000310511F00C9749F76CE883E793E00E9404
:10100000340668E781E793E00E9434068091CE01C0
:101010009091CF019093CD018093CC010E94E10685
:101020009093CF018093CE0184309105C1F086303A
:10103000910581F40E94C306E9CF8B7F029729F4C2
:1010400064EF71E080E090E0B6CF60E971E080E0AD
:1010500090E0B1CF0C97D1F60E94B906D7CF089592
:101060000F931F93CF938C01C62F0E944A056C2FBC
:101070006460C8010E944A056C2F6B7FC8010E9402
:101080004A0583EC90E00197F1F7CF911F910F9102
:1010900008950F931F93CF93DF938C01D62FC42F06
:1010A000607F642B0E94300880E1D89FB00111243A
:1010B0006C2BC801DF91CF911F910F910C943008D8
:1010C000CF93DF93CDB7DEB728970FB6F894DEBF86
:1010D0000FBECDBF98E0E6E0F1E0DE011196019091
:1010E0000D929A95E1F790916203961708F46FEFCD
:1010F000262F30E0220F331F41E050E04C0F5D1FE0
:10110000240F351FF9016081680F606840E08AE5AF
:1011100093E028960FB6F894DEBF0FBECDBFDF91E7
:10112000CF910C94490840E061E08AE593E00E9489
:1011300049088BE39FE10197F1F7089541E00E9490
:10114000490881E090E00895CF93DF932091580300
:1011500030915903232B89F0FC01C0915403D091A5
:10116000550360817181CE010E943F1F009729F0D5
:101170008C1B9D0BDF91CF9108958FEF9FEFFACFDE
:1011800085ED8093BC008091300290913102A09156
:101190003202B09133020796A11DB11D23E0B6952E
:1011A000A795979587952A95D1F72091BC0024FDA6
:1011B00003C010927D020895409130025091310297
:1011C0006091320270913302452B462B472B69F315
:1011D0000097A105B10541F025E32A95F1F700003C
:1011E0000197A109B109E1CF80912F020C94A802C7
:1011F0002F923F924F925F926F927F928F929F9227
:10120000AF92BF92CF92DF92EF92FF920F931F9314
:10121000CF93DF9300D000D0CDB7DEB7FC01448080
:1012200055804114510409F412C1FB01648075809A
:101230006114710409F40BC17A016B019C838B83E7
:10124000FA01A480B580A618B708FC0100811181BD
:10125000A114B104B9F4F60160817181C8010E9442
:101260003F1F8C01009709F4F2C0F7016081718182
:10127000448155810E94121FF70184819581080FD6
:10128000191FE9CFB7FC10C0FB012080318042015B
:10129000C801B1010E943F1F009709F44EC0860D9E
:1012A000971D8A0C9B1CF5CF3801F6016081718176
:1012B000C8010E943F1F2C01009729F14C01801AA0
:1012C000910AA401B801C3010E94121F680C791C85
:1012D000F7016081718144815581C3010E94121F11
:1012E000F70184809580680C791CF60104811581D2
:1012F000040D151DEB81FC81848195818A0D9B1D58
:1013000095838483D2CFB801C3010F900F900F90C3
:101310000F90DF91CF911F910F91FF90EF90DF9091
:10132000CF90BF90AF909F908F907F906F905F9085
:101330004F903F902F900C94381F4814590409F493
:1013400086C0EB81FC81828193818815990578F4B0
:10135000B4016F5F7F4FC8010E94551E009709F4CA
:1013600076C0EB81FC819183808393828282EB81C2
:10137000FC81048115810150110917FD68C03801F5
:10138000F601248035802114310409F460C0EB811A
:10139000FC81848095808114910409F458C08214E2
:1013A000930408F454C00815190520F03401F1E045
:1013B0006F1A7108EB81FC8140805180C2010FEFF0
:1013C0001FEF9201260D371D3A832983E981FA81A7
:1013D000E817F90788F0F601608171810E943F1FCC
:1013E000009751F09C01241935096216730608F420
:1013F000980101968901EACF17FD29C0200E311E00
:10140000C201820D931DA40142195309BC018A0D2A
:101410009B1D0E941B1FEB81FC81848195818A0D9D
:101420009B1D9583848320813181820F931FFC0152
:101430001082EB81FC8180819181F7016081718153
:1014400044815581800F911F0E94121F94CF0F90ED
:101450000F900F900F90DF91CF911F910F91FF9000
:10146000EF90DF90CF90BF90AF909F908F907F9044
:101470006F905F904F903F902F9008950F931F9320
:10148000CF93DF93EC0188819981009759F02A81ED
:101490003B812617370730F081E0DF91CF911F9114
:1014A0000F9108958B016F5F7F4F0E94551E00972B
:1014B00059F0998388831B830A832C813D81232BD8
:1014C00059F7FC011082E8CF80E0E7CF0F931F931C
:1014D000CF93DF9300D0CDB7DEB789831A82009116
:1014E0005803109159030F5F1F4FB80184E593E033
:1014F0000E943E0A8823A1F02091540330915503A5
:101500008091580390915903BE016F5F7F4F820F06
:10151000931F0E94381F109359030093580381E0D2
:101520000F900F90DF91CF911F910F9108950E941E
:10153000420782E40C94660ACF93DF93EC01888122
:101540009981009711F00E94CC1D198218821D828A
:101550001C821B821A82DF91CF910895EF92FF9235
:101560000F931F93CF93DF93EC017B018A01BA01A4
:101570000E943E0A81110BC0CE010E949C0ACE013E
:10158000DF91CF911F910F91FF90EF9008951D83F0
:101590000C83B701888199810E94381FF0CFFC012C
:1015A00080819181009711F00C94CC1D0895FC016D
:1015B000118210821382128215821482FB01019023
:1015C0000020E9F73197AF01461B570B0C94AE0A88
:1015D000FB0101900020E9F73197AF01461B570B43
:1015E000DC01ED91FC910280F381E02D0994CF9311
:1015F000DF93BC018FEA92E00E940B04EC016EE3E2
:1016000071E08FEA92E00E94E80A8C0F9D1FDF9143
:10161000CF910895CF93DF93BC018FEA92E00E94AF
:101620001904EC016EE371E08FEA92E00E94E80A8F
:101630008C0F9D1FDF91CF910895CF93DF93682F7B
:101640008FEA92E00E940404EC016EE371E08FEAFD
:1016500092E00E94E80A8C0F9D1FDF91CF910895C0
:101660008F929F92AF92BF92EF92FF920F931F9330
:10167000CF93DF93CDB7DEB7A1970FB6F894DEBF57
:101680000FBECDBF7C01FA01CB0119A2223008F4B4
:101690002AE08E010F5D1F4F822E912CB12CA12CC0
:1016A000BF01A50194010E94F41CF901CA016A302E
:1016B0000CF5605DD8016E938D01232B242B252B17
:1016C00079F790E080E0109721F0BD01C7010E94FA
:1016D000E80AA1960FB6F894DEBF0FBECDBFDF912A
:1016E000CF911F910F91FF90EF90BF90AF909F907F
:1016F0008F900895695CDECFCF92DF92EF92FF92D8
:101700000F931F93CF93DF936B01770FEE08FF08C2
:10171000F7FE1BC0EC016DE20E9404048C0144271B
:101720005527BA014C195D096E097F092AE0CE01DF
:101730000E94300B800F911FDF91CF911F910F916D
:10174000FF90EF90DF90CF9008952AE0B701A601B7
:10175000DF91CF911F910F91FF90EF90DF90CF908D
:101760000C94300BCF93DF93BC018FEA92E00E9480
:101770007C0BEC016EE371E08FEA92E00E94E80AD4
:101780008C0F9D1FDF91CF910895CF92DF92EF9242
:10179000FF920F931F93CF93DF9362EF70E08FEA76
:1017A00092E00E9419040E94CD066CE883E793E062
:1017B0000E94340668E781E793E00E9434060E94A5
:1017C000F7036B017C0110E000E08091CE01909165
:1017D000CF019093CD018093CC010E94E106EC01F2
:1017E0009093CF018093CE010297029790F0C6307C
:1017F000D10579F0C430D10561F0CC30D10549F084
:10180000C830D10531F0C831D10519F0209709F061
:1018100050C06CE883E793E00E94340668E781E7F4
:1018200093E00E9434060E94F7036C197D098E092B
:101830009F090E947F1B2AE939E949E95FE30E9479
:10184000BC1B0E94B11C0E94C4036EE170E080E0EA
:1018500090E00E94C4030E94D70660EE71E080E031
:1018600090E00E94C403D093CD01C093CC010E94AC
:10187000E1069093CF018093CE010E94B20B80913C
:10188000CE019091CF019C012250310923303105C6
:1018900008F04BC086ED90E00E940A0B81E090E0DA
:1018A000DF91CF911F910F91FF90EF90DF90CF903C
:1018B0000895CC31D10539F46CE883E793E00E94B8
:1018C000340668E709C0CE31D10559F46CE883E7E6
:1018D00093E00E94340664E681E793E00E943406B8
:1018E00074CFC730D10541F368E7CF30D10529F374
:1018F0006F9711F76CE883E793E00E94340668E77E
:1019000081E793E00E943406E8012196083311052F
:101910003CF085EE90E00E940A0B8FEF9FEFC0CF66
:10192000CE010E94B20B8E0150CF8630910509F492
:10193000B1CF9C012B7F2830310509F4ABCF883122
:10194000910509F4A7CF8F30910519F04E970297B2
:1019500018F489EC90E0DFCF90E080E0A1CF0C9408
:10196000E80ACF93DF93EC018091CC019091CD01F7
:101970008C179D0731F081E090E09093C001809337
:10198000BF01E091BF01F091C0013197E730F1054F
:1019900008F08EC0E253F34F0C94161DD50C170DB2
:1019A000220D270D320D420D490D67EC70E08FEAD4
:1019B00092E00E941904CE010E94B20B8091BF01F7
:1019C0009091C00101969093C0018093BF01209730
:1019D00009F073C0D093C501C093C401C032D105D2
:1019E00008F086C0FE01E950F34F0C94161D650DFA
:1019F000650D650D650D650D780D650D650D650D44
:101A0000780D780D780D650D780D780D650D650DE7
:101A1000780D780D780D780D780D780D780D650DB1
:101A2000780D780D780D650D780D650D680D65ECF8
:101A300070E08FEA92E00E94190484E593E00E942E
:101A4000F70ABCCF0E94930884E090E0BCCF60E02E
:101A500080E00E94600864E573E08AE593E00E94FC
:101A60000B04ACCF60E089E00E94600860EB71E09D
:101A70008AE593E00E94AF0CBE018AE593E00E94E4
:101A80007C0B9CCF61E080E00E9460086EE473E014
:101A9000E4CF61E089E00E94600860EB71E08AE5D4
:101AA00093E00E94AF0C6091C6017091C701E5CF31
:101AB0001092C0011092BF018ACFD093CB01C09386
:101AC000CA01C430D10509F085CFDF91CF910895C7
:101AD0008091CC019091CD014F97B9F38091BD01D8
:101AE0009091BE0101969093BE018093BD01EDCF10
:101AF0006BEB70E08FEA92E00E941904CE01DF9157
:101B0000CF910C94B20BDF92EF92FF920F931F9341
:101B1000CF93DF93CDB7DEB7A4970FB6F894DEBFAF
:101B20000FBECDBF8091580390915903892B09F4C2
:101B3000F1C3009154031091550368E570E0C801AA
:101B40000E942D1F009709F4E5C39C01201B310B57
:101B5000890160E471E0CE0101960E94D70A80916C
:101B6000580390915903009741F18017910708F4A9
:101B70008C01E0915403F0915503E00FF11FF080C8
:101B8000108260915403709155036115710509F439
:101B9000C4C3FB0101900020E9F73197AF01461B58
:101BA000570BCE0101960E94AE0A8091540390918A
:101BB0005503080F191FF801F0828091540390918A
:101BC0005503009709F4B0C369817A8161157105E5
:101BD00009F4A8C340915603509157032D813E81CB
:101BE0004217530708F49EC30E94381F8D819E81BF
:101BF00090935903809358031E821D82CE01019653
:101C00000E94CF0A88E08093650360E08AE593E054
:101C10000E944A050E94930860E080E00E946008EC
:101C200064E573E08AE593E00E940B0461E080E0E4
:101C30000E9460086CEA70E08AE593E00E94190453
:101C400068E873E180E090E00E94C4038FE990E0CF
:101C50000E940A0B60E970E08FEA92E00E9419048A
:101C600084E593E00E94F70A61E471E0CE010796F3
:101C70000E94D70A63E471E0CE0101960E94D70A60
:101C8000AE01495F5F4FBE016F5F7F4F84E593E018
:101C90000E94F808CE0101960E94CF0ACE01079655
:101CA0000E94CF0A65E471E0CE0107960E94D70A30
:101CB00067E471E0CE0101960E94D70AAE01495F48
:101CC0005F4FBE016F5F7F4F84E593E00E94F8088D
:101CD000CE0101960E94CF0ACE0107960E94CF0A3C
:101CE00061E471E0CE0107960E94D70A6BE471E0CF
:101CF000CE0101960E94D70AAE01495F5F4FBE0137
:101D00006F5F7F4F84E593E00E94F808CE01019653
:101D10000E94CF0ACE0107960E94CF0A65E471E0C7
:101D2000CE0107960E94D70A6FE471E0CE010196BA
:101D30000E94D70AAE01495F5F4FBE016F5F7F4FC0
:101D400084E593E00E94F808CE0101960E94CF0A34
:101D5000CE0107960E94CF0A61E471E0CE0107969A
:101D60000E94D70A63E571E0CE0101960E94D70A6E
:101D7000AE01495F5F4FBE016F5F7F4F84E593E027
:101D80000E94F808CE0101960E94CF0ACE01079664
:101D90000E94CF0A69E471E0CE0107960E94D70A3B
:101DA00067E571E0CE0101960E94D70AAE01495F56
:101DB0005F4FBE016F5F7F4F84E593E00E94F8089C
:101DC000CE0101960E94CF0ACE0107960E94CF0A4B
:101DD00063E471E0CE014F960E94D70ACE014F9680
:101DE0000E94A40897FFB7C267E471E0CE0149964C
:101DF0000E94D70ACE0149960E94A40897FFB2C25A
:101E00006BE471E0CE0143960E94D70ACE0143965F
:101E10000E94A40897FFACC26FE471E0CE010D965A
:101E20000E94D70ACE010D960E94A40897FFA5C272
:101E300063E571E0CE0107960E94D70ACE010796AE
:101E40000E94A40897FF9EC267E571E0CE0101964B
:101E50000E94D70ACE0101960E94A408991F9927D3
:101E6000991F81E0EE24E394FF24F39401E011E054
:101E70009093B401882321F0CE0101960E94CF0AED
:101E8000EE2021F0CE0107960E94CF0AFF2021F01C
:101E9000CE010D960E94CF0A002321F0CE01439679
:101EA0000E94CF0A112321F0CE0149960E94CF0A49
:101EB000CE014F960E94CF0A60EB71E08FEA92E06C
:101EC0000E94AF0C84E593E00E94F70A1091B401E0
:101ED000112309F4C9CE61E471E0CE0107960E9496
:101EE000D70A6BE471E0CE0101960E94D70AAE01D9
:101EF000495F5F4FBE016F5F7F4F84E593E00E94B3
:101F0000F808CE0101960E94CF0ACE0107960E94E2
:101F1000CF0A69E571E0CE0107960E94D70A6BE50A
:101F200071E0CE0101960E94D70AAE01495F5F4F72
:101F3000BE016F5F7F4F84E593E00E94F808CE01F9
:101F400001960E94CF0ACE0107960E94CF0A61E453
:101F500071E0CE0107960E94D70A63E471E0CE01DA
:101F600001960E94D70AAE01495F5F4FBE016F5FC5
:101F70007F4F84E593E00E94F808CE0101960E940D
:101F8000CF0ACE0107960E94CF0A69E571E0CE0123
:101F900007960E94D70A6FE571E0CE0101960E9474
:101FA000D70AAE01495F5F4FBE016F5F7F4F84E587
:101FB00093E00E94F808CE0101960E94CF0ACE015C
:101FC00007960E94CF0A61E471E0CE0107960E9455
:101FD000D70A63E571E0CE0101960E94D70AAE01EF
:101FE000495F5F4FBE016F5F7F4F84E593E00E94C2
:101FF000F808CE0101960E94CF0ACE0107960E94F2
:10200000CF0A69E471E0CE0107960E94D70A63E621
:1020100071E0CE0101960E94D70AAE01495F5F4F81
:10202000BE016F5F7F4F84E593E00E94F808CE0108
:1020300001960E94CF0ACE0107960E94CF0A6BE458
:1020400071E0CE014F960E94D70ACE014F960E94B2
:10205000A40897FF9BC16BE571E0CE0149960E94F1
:10206000D70ACE0149960E94A40897FF96C163E45F
:1020700071E0CE0143960E94D70ACE0143960E949A
:10208000A40897FF90C16FE571E0CE010D960E9404
:10209000D70ACE010D960E94A40897FF8AC163E576
:1020A00071E0CE0107960E94D70ACE0107960E94E2
:1020B000A40897FF84C163E671E0CE0101960E94F7
:1020C000D70ACE0101960E94A408991F9927991F4B
:1020D000812FD12EE12EF12E012F9093B401882370
:1020E00021F0CE0101960E94CF0ADD2021F0CE0121
:1020F00007960E94CF0AEE2021F0CE010D960E9495
:10210000CF0AFF2021F0CE0143960E94CF0A002380
:1021100021F0CE0149960E94CF0ACE014F960E942F
:10212000CF0A60EB71E08FEA92E00E94AF0C84E589
:1021300093E00E94F70A8091B401882309F4CBCE82
:1021400060E870E08FEA92E00E94190484E593E071
:102150000E94F70A6091540370915503611571054F
:1021600009F433C140915803509159038EE493E030
:102170000E94AE0A67E671E0CE0107960E94D70A78
:1021800061E471E0CE0101960E94D70AAE01495F79
:102190005F4FBE016F5F7F4F8EE493E00E94F808AF
:1021A000CE0101960E94CF0ACE0107960E94CF0A67
:1021B00069E671E0CE0107960E94D70A69E571E0F1
:1021C000CE0101960E94D70AAE01495F5F4FBE0162
:1021D0006F5F7F4F8EE493E00E94F808CE01019676
:1021E0000E94CF0ACE0107960E94CF0A66E771E0EF
:1021F000CE0107960E94D70A65E471E0CE010196F0
:102200000E94D70AAE01495F5F4FBE016F5F7F4FEB
:102210008EE493E00E94F808CE0101960E94CF0A56
:10222000CE0107960E94CF0A6BE671E0CE010796B9
:102230000E94D70A69E471E0CE0101960E94D70A94
:10224000AE01495F5F4FBE016F5F7F4F8EE493E049
:102250000E94F808CE0101960E94CF0ACE0107968F
:102260000E94CF0A68E670E08FEA92E00E941904AB
:102270008EE493E00E94F70A8091520390915303F9
:1022800001979093C7018093C6010E94B20B0E94F0
:10229000930860E080E00E94600864E573E08AE5EE
:1022A00093E00E940B0461E080E00E9460086EE40D
:1022B00073E08AE593E00E940B0461E089E00E94EC
:1022C00060086DE671E08AE593E00E94AF0C6091D2
:1022D000C6017091C7018AE593E00E947C0B68E813
:1022E00073E180E090E00E94C4031092650360E017
:1022F0008AE593E00E944A05A4960FB6F894DEBFE3
:102300000FBECDBFDF91CF911F910F91FF90EF9046
:10231000DF9008950FEF1FEF1CCCCE0101960E94B5
:102320009C0A43CC0E94CC1D89819A8190935503CD
:10233000809354038B819C81909357038093560321
:102340008D819E8190935903809358031A8219823C
:102350001C821B8251CC80E0E12CF12C00E010E0CB
:1023600090E086CD80E0E12CF12C00E011E0F8CF88
:1023700080E0E12CF12C01E0F9CF80E0E12CFF249A
:10238000F394F9CF80E0EE24E394F9CF80E0D12CF0
:10239000E12CF12C00E090E0A0CE012F80E0D12CC8
:1023A000E12CF12CF8CFF12E012F80E0D12CE12C83
:1023B000F2CFE12EF12E012F80E0D12CECCFD12EE7
:1023C000E12EF12E012F80E0E6CF8EE493E00E9413
:1023D0009C0AD0CE1F920F920FB60F9211242F930A
:1023E0003F934F935F936F937F938F939F93AF939D
:1023F000BF93EF93FF938091B900887F803609F4F3
:102400004AC0F0F5883209F4A7C018F5803109F404
:102410009BC0B8F4882309F4F9C0883009F494C04B
:10242000FF91EF91BF91AF919F918F917F916F91AC
:102430005F914F913F912F910F900FBE0F901F9082
:102440001895883109F488C0803251F780937C0256
:1024500014C0803409F49DC040F48033B9F388334C
:10246000F9F680937C0285ECB0C0803509F485C014
:10247000883509F496C0883499F60E94C008D0CFF8
:10248000883909F48CC038F5883729F050F488363B
:1024900011F0803729F683E080937D0210927B0251
:1024A00057C0883809F47BC0803919F0803809F0AA
:1024B000B7CF80917B02803208F071C0E0917B023F
:1024C00081E08E0F80937B028091BB00F0E0E55AA3
:1024D000FD4F80833DC0803B39F0E0F4803A09F441
:1024E00079C0883A09F09CCF84E080937D021092F5
:1024F000580210925702E0915502F0915602099548
:102500008091570281110FC081E080935702109291
:10251000350209C0803C09F4A6CF883C09F4A3CF5A
:10252000883B09F07DCFE091580281E08E0F8093C7
:102530005802F0E0EB5CFD4F80818093BB009091EE
:1025400058028091570229C08091A2028093BB005B
:1025500085EC8093BC0064CF9091A1028091A00291
:10256000981758F5E091A10281E08E0F8093A102A7
:10257000F0E0E058FD4F8081E9CFE091A10281E0D9
:102580008E0F8093A1028091BB00F0E0E058FD4FD8
:1025900080839091A1028091A0029817C8F285E8EB
:1025A000D8CFE091A10281E08E0F8093A1028091AB
:1025B000BB00F0E0E058FD4F808380917F028111E5
:1025C0005CCF81E080937E0284EA8093BC0010920D
:1025D0007D0226CF85EC8093BC0010927D02809115
:1025E0007B02803230F4E0917B02F0E0E55AFD4F4F
:1025F000108260917B0270E0E0915902F0915A02E2
:102600008BE592E0099510927B020ACF10927C0232
:1026100034CF1F920F920FB60F9211242F933F9336
:102620008F939F93AF93BF938091E2019091E301C9
:10263000A091E401B091E5013091E10123E0230F85
:102640002D3758F50196A11DB11D2093E10180930E
:10265000E2019093E301A093E401B093E50180913E
:10266000E6019091E701A091E801B091E90101969E
:10267000A11DB11D8093E6019093E701A093E801AD
:10268000B093E901BF91AF919F918F913F912F91AD
:102690000F900FBE0F901F90189526E8230F0296FB
:1026A000A11DB11DD2CF1F920F920FB60F92112410
:1026B0002F933F934F935F936F937F938F939F934A
:1026C000AF93BF93EF93FF938FEA92E00E94BB0416
:1026D000FF91EF91BF91AF919F918F917F916F91FA
:1026E0005F914F913F912F910F900FBE0F901F90D0
:1026F00018951F920F920FB60F9211242F938F935C
:102700009F93EF93FF93E091BF02F091C00280810D
:10271000E091C502F091C60282FD1BC090818091BC
:10272000C8028F5F8F732091C902821741F0E09138
:10273000C802F0E0E155FD4F958F8093C802FF91EC
:10274000EF919F918F912F910F900FBE0F901F903F
:1027500018958081F4CFEF92FF920F931F93CF9340
:10276000E3EAF2E01382128288EE93E0A0E0B0E0A8
:1027700084839583A683B78322E131E0318320836C
:10278000EFEAF2E01382128284839583A683B783F3
:1027900084E291E09183808385EC90E09587848743
:1027A00084EC90E09787868780EC90E0918B808B1B
:1027B00081EC90E0938B828B82EC90E0958B848B04
:1027C00086EC90E0978B868B118E128E138E148E72
:1027D00010924D03E3E7F3E081E08083C2E0C18320
:1027E0000E94FA0280914C03837F80934C030E94E5
:1027F0005F0200EB10E0F80180818368808381EB49
:10280000E82EF12CF701C0831092B30061E08BE059
:102810000E94C902E1E7F3E0C083C1830E94FA028B
:1028200080914C038D7E80934C030E945F02F801DF
:10283000808183628083F701C0831092B40061E0DD
:1028400083E00E94C90206E613E08AE0F801808373
:1028500089E08183128261E08AE00E94C90260E01F
:10286000F80181810E94C90280E29EE4A0E0B0E00C
:10287000F80187839087A187B287EAE5F3E01382A6
:10288000128286E391E09183808387E2848380E1F2
:102890008187C287138660E471E084E593E00E943B
:1028A000D70A60E471E08EE493E0CF911F910F911D
:1028B000FF90EF900C94D70A789484B5826084BD21
:1028C00084B5816084BD85B5826085BD85B5816034
:1028D00085BD80916E00816080936E0010928100B2
:1028E000809181008260809381008091810081606D
:1028F000809381008091800081608093800080912E
:10290000B10084608093B1008091B00081608093B9
:10291000B00080917A00846080937A0080917A0080
:10292000826080937A0080917A00816080937A003F
:1029300080917A00806880937A001092C100E091C3
:10294000BF02F091C00282E08083E091BB02F0916F
:10295000BC021082E091BD02F091BE028FEC808338
:102960001092C702E091C302F091C40286E0808316
:10297000E091C102F091C202808180618083E09188
:10298000C102F091C202808188608083E091C1021F
:10299000F091C202808180688083E091C102F09151
:1029A000C20280818F7D808360E771E08FEA92E0D0
:1029B0000E94E80A6EE371E08FEA92E00E94E80A62
:1029C00064E670E084E593E00E943E0A64E670E00D
:1029D0008EE493E00E943E0A60E08EE00E94C9020D
:1029E00060E08FE00E94C90260E080E10E94C902BD
:1029F00060E081E10E94C90260E082E00E94C902B9
:102A000010922C0210922B0210922E0210922D0284
:102A10000E948A0287E591E09093560280935502C6
:102A200088E591E090935A028093590210925F03D7
:102A300080916403823018F098E090935F03809354
:102A4000620362E370E080E090E00E94C403609162
:102A500065038AE593E00E944A0568EE73E080E032
:102A600090E00E94C40360E38AE593E00E9430088E
:102A7000CBE4D6E4CE010197F1F760E38AE593E079
:102A80000E9430082197F1F760E38AE593E00E9405
:102A9000300883E592E00197F1F760E28AE593E080
:102AA0000E94300860915F03606240E08AE593E035
:102AB0000E94490884E08093600340E06CE08AE56E
:102AC00093E00E9449080E94930882E0809361038A
:102AD00040E066E08AE593E00E94490840E062E059
:102AE0008AE593E00E9449088BE39FE10197F1F7A3
:102AF00088E08093650360E08AE593E00E944A05E0
:102B00006CE883E793E00E94340668E781E793E08E
:102B10000E9434060E94D70668E771E08FEA92E0CF
:102B20000E94E80A6EE371E08FEA92E00E94E80AF0
:102B3000C2E0D0E00E943703883D924008F4A2C072
:102B4000E090CE01F090CF01F092CD01E092CC0167
:102B50000E94E1068C019093CF018093CE01E8168C
:102B6000F90641F30E94930860E080E00E9460084B
:102B7000B8018AE593E00E947C0B60E083E00E944C
:102B800060088091CE019091CF01BE010E94E01CAF
:102B9000BC018AE593E00E947C0B8091CE0190916C
:102BA000CF0195958795BE010E94E01CBC018AE586
:102BB00093E00E947C0B8091CE019091CF0195957E
:102BC000879595958795BE010E94E01CBC018AE51A
:102BD00093E00E947C0B8091CE019091CF0143E065
:102BE000959587954A95E1F7BE010E94E01CBC01CE
:102BF0008AE593E00E947C0B8091CE019091CF01F9
:102C000054E0959587955A95E1F7BE010E94E01C26
:102C1000BC018AE593E00E947C0B8091CE019091EB
:102C2000CF016EE771E08031910559F068E871E0FD
:102C30008130910531F062E971E0029711F06CE9A1
:102C400071E08AE593E00E94AF0C61E080E00E94B1
:102C5000600866EA71E08AE593E00E94AF0C6CE8D8
:102C600070E08AE593E00E947C0B69EA71E08AE5F6
:102C700093E00E94AF0C68E770E08AE593E00E9461
:102C80007C0B58CF86E091E00E940A0B0E9437032C
:102C90008033924038F461E070E080E090E00E9480
:102CA000C403F4CF8091CE019091CF018130910582
:102CB00069F46CE883E793E00E94340668E781E7F3
:102CC00093E00E9434060E94CD06FFCF8330910529
:102CD00009F055C00E94CD068091CE019091CF01A0
:102CE0009093CD018093CC010E94E1069093CF0197
:102CF0008093CE01009781F3039771F30E94F7034D
:102D00006B017C018091CE019091CF019093CD0118
:102D10008093CC010E94E1069093CF018093CE0175
:102D2000892B81F70E94F7039B01AC012C193D0907
:102D30004E095F0969017A012AE0BA01A6018FEA0A
:102D400092E00E94300B6EE371E08FEA92E00E9405
:102D5000E80A0E94930860E080E00E9460086EEA42
:102D600071E08AE593E00E94AF0C2AE0B701A6016A
:102D70008AE593E00E94300B0E94D706FDCF823097
:102D8000910509F074C081E090E09093C3018093B5
:102D9000C2011092650360E08AE593E00E944A0553
:102DA0000E94930860E080E00E94600882E091E069
:102DB0000E940A0B68EE73E080E090E00E94C4037A
:102DC00088E0A82E98EEC92E93E0D92EE12CF12CA4
:102DD00000E010E0BB24B3940E94F7036093DD0190
:102DE0007093DE018093DF019093E00186E391E030
:102DF0000E940A0B8091CE019091CF019093CD015A
:102E00008093CC010E94E1069093CF018093CE0184
:102E10000E94B10CC091CE01D091CF01C032D1053A
:102E200008F0FDC1FE01E95EF84E0C94161D47172F
:102E3000091909190919E917FA18E5176E180C1973
:102E4000FA180F190F190C18FA180F196E180C1917
:102E50000319FA18FA18FA180F19FA18FA180C19AF
:102E6000FA180F190F190F18FA180F18C8184097E9
:102E700009F08FCF6CE883E793E00E94340668E79F
:102E800081E793E00E9434060E94C306FFCF809141
:102E9000CA019091CB019C012B7F2230310549F072
:102EA0009C01277F2430310521F08830910509F0FD
:102EB0007EC00E94C50B9093C9018093C801892BE5
:102EC000C1F48EE291E00E940A0B0E94CD066CE8EC
:102ED00083E793E00E94340668E781E793E00E946D
:102EE000340668E770E080E090E00E94C4030E942E
:102EF000970A8091D001882309F47CCF1092D001E9
:102F00000E94F7036093D9017093DA018093DB018B
:102F10009093DC010E94830D0E94F7036093D5011A
:102F20007093D6018093D7019093D80188E791E000
:102F30000E940A0B8091CE019091CF019093CD0118
:102F40008093CC010E94E1069093CF018093CE0143
:102F50000E94B10CC091CE01D091CF01C032D105F9
:102F600008F09BC3FE01E954F84E0C94161D12198B
:102F7000E019E019E019EC19441BE919A11A0D1A1E
:102F8000441B4D1B4D1B0A1A441B4D1BA11A0D1A45
:102F9000E019441B441B441B4D1B441B441B0D1ACE
:102FA000441B4D1B4D1B101A441B101AF81A81307C
:102FB000910529F484E291E00E940A0B9ACF409790
:102FC00009F097CF89E191E0F7CF0E94AF066CE856
:102FD0001AC08091C4019091C5018B7F8230910508
:102FE00069F40E94CD066CE883E793E00E94340602
:102FF00064E681E793E00E9434067BCF089749F4AA
:103000000E94CD0668E783E793E00E94340668E7F4
:10301000F0CF0E94CD06DBCF0E94A506D8CF0E943C
:10302000CD066CE883E793E00E94340668E781E709
:1030300093E00E94340662E370E080E090E00E943A
:10304000C403D093CD01C093CC010E94E1064C0192
:103050009093CF018093CE01C817D90781F065E026
:1030600070E080E090E00E94C4039092CD018092D5
:10307000CC010E94E1069093CF018093CE0166E1DE
:1030800071E08FEA92E00E9419048091CE01909144
:10309000CF010E94B20B8091CE019091CF018D7F24
:1030A0004C9709F026CF0E94C50B9093C9018093DD
:1030B000C801181619064CF48091C2019091C30101
:1030C000892B31F48CE40E94660A0E94420711CFDA
:1030D00083E50E94660A0E94CD060BCF0E94CD06B2
:1030E0006CE883E793E00E94340668E781E793E0A9
:1030F0000E94340662E370E080E090E00E94C40326
:10310000D093CD01C093CC010E94E1064C01909375
:10311000CF018093CE01C817D90781F065E070E038
:1031200080E090E00E94C4039092CD018092CC0197
:103130000E94E1069093CF018093CE0163E171E09C
:103140008FEA92E00E9419048091CE019091CF0104
:103150000E94B20B8091CE019091CF01877F07979B
:1031600009F0C7CE0E94C50B9093C9018093C80196
:103170001816190654F48091C2019091C301892B4D
:1031800009F4A6CF82E50E94660A0E94B907B1CE73
:103190008DE091E00E940A0B0E94C50B9093C9013B
:1031A0008093C80197FD08C08091C2019091C3012E
:1031B000892B09F487CFE6CF88E50E94660A0E9432
:1031C000D70662E083E793E00E944B0662E081E766
:1031D00093E00E944B0662E370E080E090E00E9482
:1031E000C4030E94D7060E94970A0E94D706B09295
:1031F000D0017FCE0E94CD0666E483E793E00E9473
:1032000034066CE3F6CE8091C2019091C301892B04
:1032100019F40E94C306DBCE0E94B906D8CE0E94E4
:10322000D70667CE8091CA019091CB019C012B7F7C
:103230002230310549F09C01277F2430310521F0EF
:103240008830910509F0AEC00E94C50B9093C9016A
:103250008093C801892BC1F480E791E00E940A0B9A
:103260000E94CD066CE883E793E00E94340668E78D
:1032700081E793E00E94340668E770E080E090E028
:103280000E94C4030E94970A0E94D7068091C6013B
:103290009091C70101979093C7018093C601B092A6
:1032A000D0018091D001882309F444CE1092D0013E
:1032B0000E94F7036093D1017093D2018093D301F0
:1032C0009093D401A092650360E08AE593E00E94A8
:1032D0004A050E94930860E080E00E94600864E56F
:1032E00073E08AE593E00E940B0460E089E00E94AD
:1032F00060086091D9017091DA018091DB019091B1
:10330000DC014090DD015090DE016090DF017090A3
:10331000E0016419750986099709A70196010E94C1
:10332000F41CBA01A9012AE08AE593E00E94300B5F
:1033300061E080E00E9460086EE473E08AE593E05B
:103340000E940B0461E089E00E9460086091D10155
:103350007091D2018091D3019091D4014090D50118
:103360005090D6016090D7017090D801641975090A
:1033700086099709A70196010E94F41CBA01A901C8
:103380002AE08AE593E00E94300B0E943703883DD3
:10339000924008F485C161E070E080E090E00E9416
:1033A000C403F3CF8130910529F486E691E00E94B1
:1033B0000A0B6ACF409709F067CF8BE591E0F7CF12
:1033C0000E94C3066CE883E793E00E94340668E736
:1033D00013C00E94AF06F6CF8091C4019091C50141
:1033E0008B7F8230910569F40E94CD066CE883E7FB
:1033F00093E00E94340664E681E793E00E9434067D
:1034000050CF089721F40E94CD0668E7DCCF0E94D8
:10341000CD06D8CF0E94A506D5CF0E94B906D2CF3F
:103420000E94CD066CE883E793E00E94340668E7CB
:1034300081E793E00E94340662E370E080E090E070
:103440000E94C403D093CD01C093CC010E94E10639
:103450004C019093CF018093CE01C817D90751F04A
:1034600065E070E080E090E00E94C4039092CD019E
:103470008092CC010E94E1069093CF018093CE010F
:1034800068E571E08FEA92E00E9419048091CE0114
:103490009091CF010E94B20B8091CE019091CF010B
:1034A0008D7F4C9709F0FDCE60E571E08FEA92E0E8
:1034B0000E9419040E94C50B9093C9018093C80112
:1034C00018161906DCF58091C6019091C7010E947B
:1034D0001B010E941D0B60E08AE00E946008809141
:1034E000C6019091C7010E941B01682F8AE593E0F5
:1034F0000E94040462EB71E08AE593E00E94AF0C45
:103500008091C6019091C70101970E941B01682F0D
:103510008AE593E00E940404C091C601D091C701DE
:10352000CE010E941B01833709F0A3C00E94CD0683
:103530002197D093C701C093C601B3CE0E94420722
:10354000B0CE0E94CD066CE883E793E00E9434067B
:1035500068E781E793E00E94340662E370E080E070
:1035600090E00E94C403D093CD01C093CC010E948F
:10357000E1064C019093CF018093CE01C817D90783
:1035800081F065E070E080E090E00E94C4039092DA
:10359000CD018092CC010E94E1069093CF018093EF
:1035A000CE016DE471E08FEA92E00E9419048091EF
:1035B000CE019091CF010E94B20B8091CE019091EB
:1035C000CF01877F079709F06CCE66E471E08FEA40
:1035D00092E00E9419040E94C50B9093C901809348
:1035E000C801181619060CF46ECF0E94B90759CEFF
:1035F00062E471E08FEA92E00E9419040E94C50B18
:103600009093C9018093C8018091C6019091C70130
:103610000E941B010E941D0B60E08AE00E9460086E
:103620008091C6019091C7010E941B01682F8AE515
:1036300093E00E94040462EB71E08AE593E00E944B
:10364000AF0C8091C6019091C70101970E941B01A8
:10365000682F8AE593E00E9404048091C80190914C
:10366000C901181619060CF457CF892B09F019CE89
:1036700053CF823719F40E94B9075ACF8C3609F01C
:1036800057CF0E94420754CF0E94CD0666E483E7DD
:1036900093E00E9434066CE3AFCE0E94D70601CEC1
:1036A0000E9437038033924038F461E070E080E09C
:1036B00090E00E94C403F4CF1092650360E08AE5B5
:1036C00093E00E944A0550E040E060E471E084E548
:1036D00093E00E94AE0A0115110509F47DCB0E940A
:1036E000A704882309F478CB0E94000075CB8EE4F0
:1036F00093E00E94CF0A84E593E00C94CF0AE8940B
:1037000009C097FB3EF490958095709561957F4F29
:103710008F4F9F4F9923A9F0F92F96E9BB279395D7
:10372000F695879577956795B795F111F8CFFAF4E7
:10373000BB0F11F460FF1BC06F5F7F4F8F4F9F4F18
:1037400016C0882311F096E911C0772321F09EE876
:10375000872F762F05C0662371F096E8862F70E0DC
:1037600060E02AF09A95660F771F881FDAF7880FB6
:103770009695879597F908950E94CF1B0C94401C4D
:103780000E94321C38F00E94391C20F0952311F061
:103790000C94291C0C942F1C11240C94741C0E9452
:1037A000511C70F3959FC1F3950F50E0551F629F18
:1037B000F001729FBB27F00DB11D639FAA27F00D8A
:1037C000B11DAA1F649F6627B00DA11D661F829FB1
:1037D0002227B00DA11D621F739FB00DA11D621F96
:1037E000839FA00D611D221F749F3327A00D611DB3
:1037F000231F849F600D211D822F762F6A2F112495
:103800009F5750409AF0F1F088234AF0EE0FFF1FC7
:10381000BB1F661F771F881F91505040A9F79E3F1E
:10382000510580F00C94291C0C94741C5F3FE4F348
:10383000983ED4F3869577956795B795F795E79574
:103840009F5FC1F7FE2B880F911D9695879597F97D
:10385000089597F99F6780E870E060E008959FEF12
:1038600080EC089500240A94161617061806090617
:10387000089500240A9412161306140605060895E6
:10388000092E0394000C11F4882352F0BB0F40F46E
:10389000BF2B11F460FF04C06F5F7F4F8F4F9F4FAE
:1038A000089557FD9058440F551F59F05F3F71F030
:1038B0004795880F97FB991F61F09F3F79F0879597
:1038C0000895121613061406551FF2CF4695F1DF20
:1038D00008C0161617061806991FF1CF86957105B0
:1038E000610508940895E894BB2766277727CB01E4
:1038F00097F908952F923F924F925F926F927F9225
:103900008F929F92AF92BF92CF92DF92EF92FF92EF
:103910000F931F93CF93DF93CDB7DEB7CA1BDB0B9B
:103920000FB6F894DEBF0FBECDBF09942A88398840
:1039300048885F846E847D848C849B84AA84B98447
:10394000C884DF80EE80FD800C811B81AA81B98153
:10395000CE0FD11D0FB6F894DEBF0FBECDBFED0167
:1039600008950E94591C88F09F5798F0B92F992705
:10397000B751B0F0E1F0660F771F881F991F1AF05A
:10398000BA95C9F714C0B13091F00E94731CB1E030
:1039900008950C94731C672F782F8827B85F39F02F
:1039A000B93FCCF3869577956795B395D9F73EF4F3
:1039B00090958095709561957F4F8F4F9F4F08959B
:1039C00097FB072E16F4009407D077FD09D00E94CC
:1039D0001C1D07FC05D03EF4909581959F4F0895DE
:1039E000709561957F4F0895A1E21A2EAA1BBB1B0B
:1039F000FD010DC0AA1FBB1FEE1FFF1FA217B307BB
:103A0000E407F50720F0A21BB30BE40BF50B661FD0
:103A1000771F881F991F1A9469F760957095809594
:103A200090959B01AC01BD01CF010895EE0FFF1FE2
:103A30000590F491E02D0994AA1BBB1B51E107C02E
:103A4000AA1FBB1FA617B70710F0A61BB70B881F2E
:103A5000991F5A95A9F780959095BC01CD010895BD
:103A60000F931F93CF93DF938230910510F482E080
:103A700090E0E0917703F091780330E020E0B0E04F
:103A8000A0E0309799F42115310509F44AC0281BAC
:103A9000390B24303105D8F58A819B816115710578
:103AA00089F1FB0193838283FE0111C04081518122
:103AB0000281138148175907E0F04817590799F414
:103AC000109761F012960C93129713961C933296EE
:103AD000CF01DF91CF911F910F910895009377034C
:103AE00010937803F4CF2115310551F04217530795
:103AF00038F0A901DB019A01BD01DF01F801C1CF56
:103B0000EF01F9CF9093780380937703CDCFFE0137
:103B1000E20FF31F81939193225031093983288357
:103B2000D7CF2091750330917603232B41F4209158
:103B300002013091030130937603209375032091A5
:103B40000001309101012115310541F42DB73EB737
:103B50004091040150910501241B350BE091750340
:103B6000F0917603E217F307A0F42E1B3F0B281702
:103B7000390778F0AC014E5F5F4F2417350748F0E6
:103B80004E0F5F1F5093760340937503819391937B
:103B90009FCFF0E0E0E09CCFCF93DF930097E9F078
:103BA000FC01329713821282A0917703B0917803BF
:103BB000ED0130E020E01097A1F420813181820FE7
:103BC000931F20917503309176032817390709F068
:103BD00061C0F0937603E0937503DF91CF91089570
:103BE000EA01CE17DF07E8F54A815B819E014115A6
:103BF0005105B1F7E901FB83EA8349915991C40F5B
:103C0000D51FEC17FD0761F4808191810296840F26
:103C1000951FE90199838883828193819B838A839D
:103C2000F0E0E0E012968D919C9113970097B9F522
:103C30002D913C911197CD010296820F931F2091F7
:103C40007503309176032817390739F6309751F507
:103C50001092780310927703B0937603A0937503C4
:103C6000BCCFD383C28340815181840F951FC81775
:103C7000D90761F44E5F5F4F88819981480F591FC2
:103C8000518340838A819B819383828321153105EF
:103C900009F0B0CFF0937803E09377039ECFFD0156
:103CA000DC01C0CF13821282D7CFB0E0A0E0EBE5F9
:103CB000FEE10C947C1C8C01009751F4CB010E9416
:103CC000301D8C01C801CDB7DEB7E0E10C94981C23
:103CD000FC01E60FF71F9C0122503109E217F307A0
:103CE00008F49DC0D901CD91DC911197C617D70773
:103CF00098F0C530D10530F3CE01049786179707A9
:103D000008F3C61BD70B2297C193D1936D937C9375
:103D1000CF010E94CC1DD6CF5B01AC1ABD0A4C016D
:103D20008C0E9D1EA0917703B0917803512C412CED
:103D3000F12CE12C109731F5809175039091760369
:103D40008815990509F05CC04616570608F058C05A
:103D50008091000190910101009741F48DB79EB7C9
:103D60004091040150910501841B950BE817F90758
:103D700008F055C0F0937603E0937503F901718361
:103D80006083A0CF8D919C91119712966C901297A1
:103D900013967C901397A815B90559F56C0142E06C
:103DA000C40ED11CCA14DB0420F1AC014A195B0912
:103DB000DA011296159780F06282738251834083F4
:103DC000D9016D937C93E114F10471F0D70113963E
:103DD000FC93EE93129776CF22968C0F9D1FF901DC
:103DE00091838083F301EFCFF0937803E09377031F
:103DF00069CF4816590608F42C017D01D3019ACFEA
:103E0000CB010E94301D7C01009749F0AE01B80142
:103E10000E94121FC8010E94CC1D870153CF10E0E1
:103E200000E050CFFB01DC0102C001900D92415037
:103E30005040D8F708956817790768F4FB01DC0152
:103E4000E40FF51FA40FB51F02C002900E9241505F
:103E50005040D8F708950C94121FFC0181918617E9
:103E600021F08823D9F7992708953197CF01089534
:103E7000FB01DC0101900D920020E1F70895FB01A8
:103E800051915523A9F0BF01DC014D914517411116
:103E9000E1F759F4CD010190002049F04D91401512
:103EA0004111C9F3FB014111EFCF81E090E001978F
:103EB000089510E0C0EFD0E004C0FE010E94161D7E
:0C3EC0002196C13FD107C9F7F894FFCF4D
:103ECC000000790380000000400014005400000042
:103EDC000000B0018301310659017C0169015A01CE
:103EEC0000000000DD043D046A042A059B047904EB
:103EFC008D04000000009E083D04310603040D0AE9
:103F0C000042004C4252004C42530052424C00536F
:103F1C00424C00534253004C424C0052425300530B
:103F2C0042520052425200620072007300203A006A
:103F3C00496E697469616C00207761697400207442
:103F4C006573742046574400207465737420524F77
:103F5C005400205220616C676F726900204C206104
:103F6C006C676F72690052200020204C2000743D59
:043F7C0020003E00E3
:00000001FF
